:020000040800F2
:1000000078170020650200086D1E0008F31C000828
:10001000691E00085B040008AF2000080000000013
:10002000000000000000000000000000711E000839
:1000300081040008000000006F1E0008731E000805
:100040007F0200087F0200087F0200087F0200088C
:100050007F0200087F0200087F0200087F0200087C
:100060007F0200087F0200087F0200087F0200086C
:100070007F0200087F0200087F0200087F0200085C
:100080007F0200087F0200087F0200087F0200084C
:1000900061040008710400087F0200087F02000864
:1000A0007F0200087F0200087F0200087F0200082C
:1000B0007F020008511F00087F0200087F0200082D
:1000C0007F0200087F0200087F0200087F0200080C
:1000D0007F0200087F0200087F0200087F020008FC
:1000E0007F0200087F0200087F0200087F020008EC
:1000F0007F0200087F0200087F0200087F020008DC
:100100007F0200087F0200087F0200087F020008CB
:100110007F0200087F0200087F0200087F020008BB
:100120007F0200087F0200087F0200087F020008AB
:100130007F02000800000000000000007F020008AD
:100140007F0200087F0200087F0200087F0200088B
:100150007F0200087F0200087F0200087F0200087B
:100160007F0200087F0200087F0200087F0200086B
:100170007F0200087F0200087F02000800000000E4
:10018000000000007F0200080000000000000000E6
:100190007F02000800000000000000007F0200084D
:1001A0000000000000000000000000007F020008C6
:1001B0007F0200087F0200087F0200087F0200081B
:1001C0007F02000800F002F800F03CF80AA090E876
:1001D000000C82448344AAF10107DA4501D100F002
:1001E00031F8AFF2090EBAE80F0013F0010F18BF93
:1001F000FB1A43F001031847F8290000182A0000F1
:10020000103A24BF78C878C1FAD8520724BF30C842
:1002100030C144BF04680C60704700000023002414
:1002200000250026103A28BF78C1FBD8520728BF06
:1002300030C148BF0B6070471FB502F0C7FC1FBD3F
:1002400010B510BD00F0CFF81146FFF7F5FF02F032
:1002500033F900F0EDF803B4FFF7F2FF03BC00F050
:10026000F5F800000948804709480047FEE7FEE727
:10027000FEE7FEE7FEE7FEE7FEE7FEE7FEE7FEE756
:1002800004480549054A064B70470000351F000821
:10029000C5010008780B002078170020780F002097
:1002A000780F002053EA020C00F069802DE9F04B32
:1002B0004FF00006002B1FBFB3FA83F503FA05F4D5
:1002C00024FA05F65E4012BF1643B2FA82F502FA2E
:1002D00005F4C5F120051EBF22FA05FC44EA0C0412
:1002E000203556EA044C4FEA144418BF641C4FF002
:1002F00000084FF00009904271EB030C39D300293C
:1003000019BFB1FA81F701FA07F6B0FA80F700FADF
:1003100007F6C7F120071EBF20FA07FC46EA0C06C5
:100320002037B6FBF4FCA7EB0507103F07F01F0BC7
:10033000CBF120060CFA0BFB2CFA06F644BFB346B1
:100340000026202FA4BF5E464FF0000B5BEA060C90
:1003500008BF4FF0010B19EB0B09ABFB027C48EB1C
:100360000608C01B06FB02CC0BFB03CC71EB0C0197
:10037000C1E70B46024641464846BDE8F08B13B53F
:100380004FF000004FF00001AFF30080BDE81C40CB
:1003900070474FF0000200B5134694469646203948
:1003A00022BFA0E80C50A0E80C50B1F12001BFF42E
:1003B000F7AF090728BFA0E80C5048BF0CC05DF894
:1003C00004EB890028BF40F8042B08BF704748BFE2
:1003D00020F8022B11F0804F18BF00F8012B704756
:1003E000704770477047754600F02CF8AE46050020
:1003F0006946534620F00700854618B020B5FFF740
:100400003FFFBDE820404FF000064FF000074FF0DF
:1004100000084FF0000B21F00701AC46ACE8C00922
:10042000ACE8C009ACE8C009ACE8C0098D4670472B
:1004300010B50446AFF300802046BDE81040FFF73A
:100440000ABF000000487047180B0020014918201F
:10045000ABBEFEE726000200704700BFFEE70000CB
:1004600010B5024800F01EFA10BD00001000002078
:1004700010B5024800F016FA10BD00001000002070
:100480007047704710B5024692F82030012B01D01A
:10049000022B06D11068406908431468606100208F
:1004A00010BD506A40F4802050620120F8E7F0B59A
:1004B00004460D461E4694F8207020688368A8689C
:1004C00000B900E000BF012F01D0022F7CD103F062
:1004D000806030B903F0006018B903F08050002844
:1004E00073D0C3F30161022905D9606A40F40000AA
:1004F00060620120F0BD012088403060A86860B9CA
:10050000B5F800C0E86840EA4C5C206800F5C070AF
:1005100000EB0110C0F800C00FE0D5E901C040EACF
:10052000CC00D5F80CC040EA0C00D4F800C00CF5A3
:10053000C07C0CEB011CCCF80000D5F810C0206882
:1005400000F5C07000EB0110C0F804C0287D012840
:100550000ED1206800F5C07000EB0110406840F437
:10056000807C206800F5C07000EB0110C0F804C06A
:10057000D079000692F806C040EA0C4092F805C017
:1005800040EA0C2C10794CEA000C206800F5C07091
:1005900000EB0110C0F80CC0D078000692F802C041
:1005A00040EA0C4092F801C040EA0C2092F800C0EA
:1005B00040EA0C00D4F800C00CF5C07C0CEB011C28
:1005C000CCF80800206801E016E00FE000F5C070EC
:1005D00000EB0110006840F0010C206800F5C070CD
:1005E00000EB0110C0F800C0002083E7606A40F40F
:1005F0000010606201207DE7606A40F48020606244
:10060000012077E7F0B504460A46216894F82050A7
:10061000012D01D0022D7ED1424901F500710868FB
:1006200040F001000860086820F47C500860086809
:10063000566A40EA06200860107D00F01F0601207F
:1006400000FA06F3C8699843C861A1F50071D06942
:10065000C8B9D1F80C029843C1F80C02908880B256
:10066000968940EA064601F51070576940F83760F0
:10067000108880B2168940EA064601F51070576965
:1006800000EBC7004660D069012819D1D1F80C02EF
:100690001843C1F80C02908880B2168840EA0646DA
:1006A00001F51070576940F83760908980B216895B
:1006B00040EA064601F51070576900EBC700466036
:1006C000906928B9D1F804029843C1F8040204E003
:1006D000D1F804021843C1F80402106928B9D1F80E
:1006E00014029843C1F8140204E0D1F8140218432C
:1006F000C1F81402106A012804D1D1F81C02184371
:10070000C1F81C02D1F8000220F00100C1F800027B
:100710000020F0BDFFE7606A40F4802060620120A5
:10072000F7E7000000640040704770B5044694F895
:100730002050012D01D0022D7DD151B92068C06813
:1007400000F0030080B9606A40F40010606201208C
:1007500070BD2068006900F0030028B9606A40F4A9
:10076000001060620120F3E7206800F5D87000EB0C
:100770000110006800F004009060906840B92068A3
:1007800000F5D87000EB01100068400D106007E024
:10079000206800F5D87000EB01100068C0085060B8
:1007A000206800F5D87000EB0110006800F002002E
:1007B000D060206800F5D87000EB0110406800F0B0
:1007C0000F001061206800F5D87000EB0110406840
:1007D00000F47F40000A9061206800F5D87000EBBB
:1007E00001104068000C5061206800F5D87000EBE3
:1007F000011080681870206800F5D87000EB0110B7
:10080000806800F47F40000A5870206800F5D870B6
:1008100000EB0110806800F47F00000C98702068E5
:1008200000F5D87000EB01108068000ED8702068C9
:1008300000F5D87000E02FE000EB0110C0681871DF
:10084000206800F5D87000EB0110C06800F47F400C
:10085000000A5871206800F5D87000EB0110C068DC
:1008600000F47F00000C9871206800F5D87000EB50
:100870000110C068000ED87131B92068C06840F01E
:1008800020002668F06005E02068006940F0200044
:100890002668306100205BE7606A40F48020606277
:1008A000012055E72DE9F05F0446002520684669E0
:1008B0002068D0F80490206887682068D0F80CA0E1
:1008C0002068D0F810B02068D0F8188006F0010039
:1008D000002855D007F00100C0B1012021688860D0
:1008E00007F0020018B1204600F051FA0EE007F0C0
:1008F000040010B145F4006508E007F0080010B1ED
:1009000045F4805502E0204600F040FA07F480707C
:10091000C8B14FF480702168886007F4007018B186
:10092000204600F036FA0EE007F4806010B145F47E
:10093000005508E007F4006010B145F4804502E07E
:10094000204600F025FA07F48030C8B14FF480301B
:100950002168886007F4003018B1204600F01BFAC7
:100960000EE007F4802010B145F4004508E007F4DC
:10097000002010B145F4803502E0204600F00AFA6C
:1009800006F0080038B10AF0100020B145F40075F7
:1009900010202168C86006F0040040B10AF0080089
:1009A00028B108202168C860204600F0B1F906F09F
:1009B000020038B12068C06800F0030010B1204682
:1009C00000F0A8F906F0400038B10BF0100020B19B
:1009D00045F4806510202168086106F0200040B1D0
:1009E0000BF0080028B1082021680861204600F0BB
:1009F0009BF906F0100038B12068006900F0030090
:100A000010B1204600F091F906F4003040B109F031
:100A1000100028B1102021684860204600F086F9B7
:100A200006F4803040B109F0080028B108202168A0
:100A30004860204600F0B0F906F4004088B309F0A1
:100A4000040078B306F4807020B108F0010008B10A
:100A500045F0010506F4007020B108F0020008B16D
:100A600045F0020506F4806020B108F0040008B1EA
:100A700045F0040506F40060A0B108F0700088B1EC
:100A800008F07000402817D006DC10280BD0202872
:100A90000CD0302819D10CE0502810D0602814D187
:100AA00010E01DE019E045F008050FE045F01005E5
:100AB0000CE045F0200509E045F0400506E045F072
:100AC000800503E045F4807500E000BF00BF2068AA
:100AD000806920F0700021688861042021684860E6
:100AE0002DB1606A284360622046FFF71DFEBDE815
:100AF000F09F70B504460CB9012070BD94F8200039
:100B000010B9204600F0B0F82068006820F002001C
:100B10002168086000F054FA05460DE000F050FA34
:100B2000401B0A2808D9606A40F400306062052042
:100B300084F820000120E0E72068406800F002000F
:100B40000028EBD12068006840F0010021680860AF
:100B500000F036FA05460DE000F032FA401B0A2894
:100B600008D9606A40F400306062052084F82000F3
:100B70000120C2E72068406800F001000028EBD0A7
:100B8000207E012806D12068006840F0800021689E
:100B9000086005E02068006820F080002168086097
:100BA000607E012806D12068006840F0400021687E
:100BB000086005E02068006820F0400021680860B7
:100BC000A07E012806D12068006840F0200021683E
:100BD000086005E02068006820F0200021680860B7
:100BE000E07E012806D12068006820F0100021680E
:100BF000086005E02068006840F010002168086087
:100C0000207F012806D12068006840F00800216894
:100C1000086005E02068006820F00800216808608E
:100C2000607F012806D12068006840F00400216838
:100C3000086005E02068006820F004002168086072
:100C4000D4E90201084321690843616908436168E6
:100C5000491E08432168C86100206062012084F8B1
:100C60002000002049E7000010B586B0044614219A
:100C700001A8FFF78EFB23492068884240D100BFBE
:100C8000002000902048006840F000701E49086075
:100C90000846006800F00070009000BF00BF00BF71
:100CA0000020009018481038006840F002001649F3
:100CB000103908600846006800F00200009000BF8C
:100CC00000BF4FF44070019002200290002003907A
:100CD000032004900920059001A90C4800F072F847
:100CE00000221146142000F0F5F9142000F0E2F97A
:100CF00000221146152000F0EDF9152000F0DAF978
:100D000006B010BD006400404038024000040240BC
:100D10007047000010B504460248844201D101F03A
:100D2000F3F910BD1000002070477047704770B590
:100D3000044694F82000012822D1022084F82000E3
:100D40002068006820F001002168086000F038F990
:100D500005460DE000F034F9401B0A2808D9606A06
:100D600040F400306062052084F82000012070BD4E
:100D70002068406800F001000028EBD16062F6E7CF
:100D8000606A40F4002060620120F0E7704770471D
:100D900070477047704770477047000070B5044651
:100DA00000F00EF906462546681C10B1044800788C
:100DB000054400BF00F004F9801BA842FAD370BDBF
:100DC00008000020F8B502460B460025002400204C
:100DD0000021D7E0012606FA01F51E6806EA05049F
:100DE000AC4273D15E68012E08D05E68022E05D039
:100DF0005E68112E02D05E68122E13D190684F00EB
:100E00000326BE40B0434F00DE68BE4030439060D2
:100E1000506801268E40B0431E79C6F300168E40FE
:100E200030435060D0684F000326BE40B0434F00AF
:100E30009E68BE403043D0605E68022E02D05E687D
:100E4000122E13D1CF0802F1200656F827004E07C4
:100E5000F70E0F26BE40B0434F07FF0E1E69BE407F
:100E60003043CF0802F1200646F8270010684F00F3
:100E70000326BE40B0431E7906F003064F00BE4075
:100E8000304310605E6806F08056B6F1805F78D11E
:100E900000BF002600963D4E366846F480463B4F24
:100EA0003E603E46366806F48046009600BF00BFAE
:100EB000374E8F0856F827008E07370F0F26BE4093
:100EC000B043344EB24202D100261FE059E0324E08
:100ED000B24201D1012619E0304EB24201D10226C0
:100EE00014E02F4EB24201D103260FE02D4EB24244
:100EF00001D104260AE02C4EB24201D1052605E0BC
:100F00002A4EB24201D1062600E007268F073F0F86
:100F1000BE4030431E4E8F0846F82700244E3068EE
:100F2000A0435E6806F48036B6F5803F00D12043CA
:100F30001F4E3060361D3068A0435E6806F40036F0
:100F4000B6F5003F00D12043194E361D3060361DE6
:100F50003068A0435E6806F48016B6F5801F00D1A5
:100F60002043134E08363060361D3068A0435E685B
:100F700006F40016B6F5001F00D120430C4E0C36C7
:100F80003060491C1029FFF425AFF8BD44380240F9
:100F900008380140000002400004024000080240FE
:100FA000000C0240001002400014024000180240F1
:100FB000003C01400AB1816101E00B04836170478C
:100FC00001480068704700000000002003480068E6
:100FD000034909780844014908607047000000206F
:100FE0000800002010B50D48006840F400700B495F
:100FF00008600846006840F48060086008460068A1
:1010000040F480700860032000F0A2F8002000F097
:1010100007F800F02BF8002010BD0000003C024053
:1010200070B504460E4800784FF47A71B1FBF0F0C9
:101030000C490968B1FBF0F5284600F02BFC08B11B
:10104000012070BD102C07D200222146501E00F056
:1010500041F80548046001E00120F2E70020F0E7D4
:10106000080000200C0000200400002008B500BF8C
:10107000002000900E48006840F480400C49086051
:101080000846006800F48040009000BF00BF00BF29
:1010900000200090081F006840F08050091F086081
:1010A0000846006800F08050009000BF00BF08BDF7
:1010B0004438024001460846002809DB00F01F03BF
:1010C00001229A4043099B0003F1E023C3F8002169
:1010D00000BF70472DE9F05F80460D461646002799
:1010E00000F0E8FF074639462A46334601F007007C
:1010F000C0F1070ABAF1040F02D94FF0040A01E067
:10110000C0F1070AD14600F1040ABAF1070F02D272
:101110004FF0000A01E0A0F1030AD4464FF0010AA3
:101120000AFA09FAAAF1010A0AEA020A0AFA0CFA08
:101130004FF0010B0BFA0CFBABF1010B0BEA030BAD
:101140004AEA0B042146404600F0BCFFBDE8F09F90
:1011500000BF00F00702064B19684FF6FF03194065
:10116000044B0B4343EA0221014B196000BF704757
:101170000CED00E00000FA0570B504460D460CB910
:10118000012070BD5848006800F00F00A84209D245
:1011900055490D700846006800F00F00A84201D0C4
:1011A0000120EEE7207800F0020002281DD120780F
:1011B00000F00400042805D14C48006840F4E050D9
:1011C0004A490860207800F00800082805D14748FF
:1011D000006840F46040454908604448006820F0D9
:1011E000F000A168084341490860207800F0010040
:1011F000A8B36068012807D13C4808380068C0F3EC
:101200004040B8B90120BCE76068022802D060689D
:10121000032807D1354808380068C0F3406048B952
:101220000120AEE7314808380068C0F3400008B933
:101230000120A6E72D48006820F0030061680843FC
:101240002A490860FFF7BCFE064609E0FFF7B8FE32
:10125000801B41F28831884202D9032091E707E0E0
:101260002248006800F00C006168B0EB810FEDD1FE
:101270001D48006800F00F00A84209D91A490D70F6
:101280000846006800F00F00A84201D0012078E76E
:10129000207800F00400042807D11448006820F4E6
:1012A000E050E168084311490860207800F0080028
:1012B000082808D10D48006820F46040216940EA00
:1012C000C1000A49086000F019F808490968C1F32B
:1012D0000311074A515CC840064908600648006887
:1012E000FFF79EFE00204CE7003C02400838024019
:1012F000D62B00080C000020040000202DE9F04748
:10130000002400250026A146A2463F48006800F0C0
:101310000C0030B1042807D0082808D00C286BD165
:1013200038E0DFF8E8A06AE0DFF8E4A067E03648DC
:10133000001F006800F03F043348001F006800F4FD
:10134000800078B132483049091F0968C1F388111B
:10135000A0FB01700146224600233846FEF7A2FF9B
:1013600005460DE029482849091F0968C1F388117D
:10137000A0FB0171224600233846FEF793FF054685
:101380002148001F0068C0F30140401C4600B5FB27
:10139000F6FA34E01C48001F006800F03F041A48C9
:1013A000001F006800F4800078B119481649091F31
:1013B0000968C1F38811A0FB017001462246002391
:1013C0003846FEF76FFF05460EE010480E49091F2C
:1013D0000968C1F38811A0FB017001462246002371
:1013E0003846FEF75FFF05460748001F0068C0F358
:1013F0000279B5FBF9FA02E0DFF810A000BF00BFE8
:101400005046BDE8F0870000083802400024F40090
:10141000001BB700F8B504460025207800F0010055
:1014200000286FD0FD48006800F00C0004281BD095
:10143000FA48006800F00C00082807D1F748001FA0
:10144000006800F48000B0F5800F0DD0F34800680C
:1014500000F00C000C2813D1F048001F006800F4C5
:101460008000B0F5800F0BD1EC4808380068C0F35D
:101470004040002859D06068002856D10120F8BDAE
:1014800000BF6068B0F5803F08D1E44808380068C4
:1014900040F48030E149083908601EE06068B0F52A
:1014A000A02F0DD1DD480838006840F48020DB49CA
:1014B000083908600846006840F4803008600CE095
:1014C000D6480838006820F48030D44908390860CC
:1014D0000846006820F48020086000BF606890B172
:1014E000FFF76EFD054606E0FFF76AFD401B642826
:1014F00001D90320C3E7C94808380068C0F3404059
:101500000028F1D011E0FFF75BFD054606E0FFF78C
:1015100057FD401B642801D90320B0E7BF480838B5
:101520000068C0F340400028F1D1207800F00200AC
:1015300002286BD1B948006800F00C00B8B1B74878
:10154000006800F00C00082805D1B448001F0068AE
:1015500000F4800058B1B148006800F00C000C287D
:101560001CD1AE48001F006800F48000B0B9AB4841
:1015700008380068C0F3400020B1E068012801D0BD
:1015800001207CE7A5480838006820F0F8002169B0
:1015900040EAC100A1490839086037E0E06800B3BB
:1015A00001209F490860FFF70BFD054606E0FFF7A5
:1015B00007FD401B022801D9032060E7974808383F
:1015C0000068C0F340000028F1D094480838006853
:1015D00020F0F800216940EAC1009049083908600C
:1015E00014E000208E490860FFF7EAFC054606E09B
:1015F000FFF7E6FC401B022801D903203FE787489C
:1016000008380068C0F340000028F1D1207800F0CD
:10161000080008282CD16069A8B101208149086020
:10162000FFF7CEFC054606E0FFF7CAFC401B022888
:1016300001D9032023E779486C300068C0F34000EB
:101640000028F1D014E0002076490860FFF7B8FCCC
:10165000054606E0FFF7B4FC401B022801D9032031
:101660000DE76E486C300068C0F340000028F1D1EF
:10167000207800F00400042870D100266748383034
:10168000006800F0805090B900BF002000906348CF
:101690003830006840F080506049383108600846B2
:1016A000006800F08050009000BF00BF01265E4837
:1016B000006800F48070B0B95B48006840F4807046
:1016C00059490860FFF77CFC054606E0FFF778FC07
:1016D000401B022801D90320D1E65348006800F4DA
:1016E00080700028F2D000BFA068012808D14B48C4
:1016F0006830006840F001004849683108601DE02A
:10170000A06805280DD145486830006840F0040005
:101710004249683108600846006840F001000860EE
:101720000CE03E486830006820F001003B49683119
:1017300008600846006820F00400086000BFA06848
:10174000A8B1FFF73DFC054609E0FFF739FC401B57
:1017500041F28831884202D9032090E626E02F48E2
:1017600068300068C0F340000028EED013E0FFF7B7
:1017700027FC054608E0FFF723FC401B41F28831B7
:10178000884201D903207AE6244868300068C0F313
:1017900040000028EFD1012E07D1204838300068E2
:1017A00020F080501D493831086000BFA069E8B3BF
:1017B0001A48006800F00C00082862D0A0690228CE
:1017C0004AD1002016490866FFF7FAFB054606E0F5
:1017D000FFF7F6FB401B022801D903204FE60F4814
:1017E00008380068C0F340600028F1D1D4E907014F
:1017F0000843616A40EA81110122A06AC2EB5000ED
:1018000041EA00412C20005D41EA00613020005D8A
:1018100041EA00700149091F086008E008380240E9
:1018200000004742800E4742007000402BE001203C
:1018300016490866FFF7C4FB054606E0FFF7C0FB44
:10184000401B022801D9032019E611480068C0F3A3
:1018500040600028F2D016E000200C490866FFF72F
:10186000AFFB054606E0FFF7ABFB401B022801D9A2
:10187000032004E606480068C0F340600028F2D167
:1018800001E00120FBE50020F9E5000000004742EF
:101890000038024070B504462546681EB0F1807FCE
:1018A00001D301200FE0681E4FF0E02148610F21B5
:1018B0004FF0FF3000F006FC00204FF0E02188617F
:1018C00007200861002070BD7047704730B50246A0
:1018D0000B4600BF92F83C00012801D1022030BD28
:1018E000012082F83C0000BF022082F83D00106811
:1018F00044681068816824F0700418680443106814
:101900004460184D1068A8421BD01068B0F1804F99
:1019100017D0154D1068A84213D0144D1068A84276
:101920000FD0134D1068A8420BD0124D1068A8427A
:1019300007D0114D1068A84203D0104D1068A8427E
:1019400005D121F0800158680143106881600120B1
:1019500082F83D0000BF002082F83C0000BF00BFBD
:10196000BDE7000000000140000400400008004006
:10197000000C0040000401400040014000180040FD
:1019800010B504460CB9012010BD94F83D0028B9EB
:10199000002084F83C00204600F00CF8022084F877
:1019A0003D00211D206800F0DBFA012084F83D0095
:1019B0000020E9E738B504460E492068884217D16F
:1019C00000BF002000900C48006840F002000A4967
:1019D00008600846006800F00200009000BF00BFE9
:1019E000002211461D20FFF775FB1D20FFF762FB4B
:1019F00038BD00000004004040380240014608683D
:101A0000C06840F001000B68D8600868806800F08A
:101A10000702062A05D00868006840F001000B683C
:101A20001860002070472DE9F04104460D4600BFC4
:101A300094F83C00012802D10220BDE8F081012089
:101A400084F83C0000BF022084F83D0020688668CE
:101A500026F0770626F47F4620688660286850289E
:101A600033D00CDC202850D004DC00284BD01028C8
:101A700051D149E0302849D040284CD139E0602884
:101A80002DD0702807D0B0F5805F03D0B0F5005F8F
:101A900041D10DE040E0D5E902136A68206800F00A
:101AA000CBFA2068866846F077062068866033E0C7
:101AB000D5E902136A68206800F0BEFA20688068E1
:101AC00040F480402168886026E0EA686968206800
:101AD00000F0C6FA5021206800F0B9FA1CE0EA686C
:101AE0006968206800F0CFFA6021206800F0AFFA42
:101AF00012E0EA686968206800F0B2FA40212068C4
:101B000000F0A5FA08E000BF00BF00BF2968206808
:101B100000F09DFA00E000BF00BF012084F83D0006
:101B200000BF002084F83C0000BF00BF85E770477D
:101B300010B5044620680069C0F34000D8B12068A1
:101B4000C068C0F34000B0B16FF0020021680861C6
:101B5000012020772068806900F0030018B120463A
:101B6000FFF7E5FF05E0204600F0ADF8204600F065
:101B7000ABF80020207720680069C0F38000D8B15E
:101B80002068C068C0F38000B0B16FF00400216825
:101B90000861022020772068806900F4407018B145
:101BA0002046FFF7C4FF05E0204600F08CF82046F1
:101BB00000F08AF80020207720680069C0F3C00098
:101BC000D8B12068C068C0F3C000B0B16FF00800A1
:101BD00021680861042020772068C06900F00300B4
:101BE00018B12046FFF7A3FF05E0204600F06BF890
:101BF000204600F069F80020207720680069C0F3D3
:101C00000010D8B12068C068C0F30010B0B16FF008
:101C1000100021680861082020772068C06900F45E
:101C2000407018B12046FFF782FF05E0204600F023
:101C30004AF8204600F048F8002020772068006924
:101C400000F0010058B12068C06800F0010030B118
:101C50006FF0010021680861204600F037F8206825
:101C60000069C0F3C01058B12068C068C0F3C0104C
:101C700030B16FF08000216808612046FFF724FE34
:101C800020680069C0F3801058B12068C068C0F3B4
:101C9000801030B16FF0400021680861204600F0EC
:101CA00027F820680069C0F3401058B12068C06868
:101CB000C0F3401030B16FF0200021680861204669
:101CC000FFF703FE10BD70477047000010B50446D3
:101CD00004492068884203D10349044800F085FA8A
:101CE00010BD00000004004078000020100000201B
:101CF000704700BFFEE7000010B5104810490860AB
:101D00000220486000210E488160C1604FF46021CC
:101D100001614FF48001416100210176012141768A
:101D2000002181760121C176002101774177FEF7FC
:101D3000E0FE08B1FEF7A5FB10BD00000064004006
:101D40001000002000B587B0142102A8FEF721FB87
:101D500000BF002001902748006840F0040025499A
:101D600008600846006800F00400019000BF00BF52
:101D700000BF002001900846006840F08000086025
:101D80000846006800F08000019000BF00BF00BF5F
:101D9000002001900846006840F0010008600846F5
:101DA000006800F00100019000BF00BF00BF0020EC
:101DB00001900846006840F002000860084600688C
:101DC00000F00200019000BF00BF00224FF400515C
:101DD0000948FFF7EFF84FF40050029001200390FC
:101DE00000200490059002A90348FEF7EBFF07B01E
:101DF00000BD0000303802400008024000B587B046
:101E000000200390049005900690019002901448E1
:101E100014490860532048600021124881604FF443
:101E20007A71C160002101618161FFF7A9FD08B1EC
:101E3000FEF727FB4FF48050039003A90948FFF7F2
:101E4000F2FD08B1FEF71DFB00200190029001A9F0
:101E50000448FFF73BFD08B1FEF713FB07B000BDD8
:101E6000000400403800002000BFFEE770477047C4
:101E7000704710B5FFF7AAF810BD000000B593B089
:101E8000342106A8FEF785FA142101A8FEF781FA8D
:101E900000BF002000902548006840F08050234992
:101EA00008600846006800F08050009000BF00BF46
:101EB00000BF002000901E48006840F440401C49CC
:101EC00008600846006800F44040009000BF00BF72
:101ED000012006900004079002200C9041050D910E
:101EE00006210E91A8210F91022110910721119135
:101EF0000221129106A8FFF78DFA08B1FEF7C1FA88
:101F00000F20019002200290002003904FF4A05077
:101F100004904FF480500590052101A8FFF72CF99B
:101F200008B1FEF7AEFA13B000BD00004038024021
:101F3000007000400548006840F4700003490860E4
:101F40004FF00060014980390860704788ED00E07B
:101F500010B50248FFF7ECFD10BD0000380000206E
:101F600010B50268294B98420ED0B0F1804F0BD0CB
:101F7000274B984208D0274B984205D0264B9842D1
:101F800002D0264B984203D122F070024B681A43CC
:101F90001E4B984220D0B0F1804F1DD01C4B984270
:101FA0001AD01C4B984217D01B4B984214D01B4B95
:101FB000984211D01A4B98420ED01A4B98420BD02F
:101FC000194B984208D0194B984205D0184B9842AB
:101FD00002D0184B984203D122F44072CB681A43C6
:101FE00022F080034C6943EA040202608B68C362FA
:101FF0000B688362054B984202D0084B984201D18E
:102000000B6903630123436110BD00000000014020
:102010000004004000080040000C004000040140A3
:1020200000400140004401400048014000180040C9
:10203000001C00400020004030B50C46816821F4AF
:102040007F4142EA032525432943816030BD0A468A
:10205000816821F0700142F00703194381607047E5
:1020600030B50B461446026A056A25F00105056283
:10207000816921F0F00141EA041122F00A021A43B9
:102080008161026230BD30B50B461446056A25F009
:10209000100505628169026A21F4704141EA043148
:1020A00022F0A00242EA03128161026230BD00BF49
:1020B000FEE7000002480068C0F3022070470000FD
:1020C0000CED00E010B5002804DB0A07130E054AEA
:1020D000135406E00A07140E034A00F00F031B1FF7
:1020E000D45410BD00E400E018ED00E010B500F09D
:1020F00027F80448FEF71BFE02210248FEF7C2F94A
:1021000010BD0000100000200EB5002000900190CE
:102110006A4602A9084800F031F8BDF80800112805
:1021200008D16946054800F0DCF86946034800F02C
:1021300015FB00BF00BF0EBD10000020780000207E
:1021400000B58BB001200990002007900120089075
:10215000002001900290039004900690059001A940
:102160000548FEF74FFA0448FEF7E1FD0221024858
:10217000FEF788F90BB000BD1000002070B588B0E4
:1021800006460C4615462B4601AA00213046FEF7AE
:10219000CCFA28B9019820800598C0B208B070BD6B
:1021A0000020FBE7F0B587B006460C4617461D46F3
:1021B00001940020029003900490059501233A4673
:1021C00001A93046FEF773F960B102233A4601A92E
:1021D0003046FEF76CF928B104233A4601A930468F
:1021E000FEF765F9002007B0F0BD70B505460C4656
:1021F00094F83C00012806D002281ED0032829D0DC
:10220000042841D12FE0D4ED122AB0EE622AD4ED99
:10221000152AF0EE621AD4ED142AB0EE621AD4ED4B
:10222000112AF0EE620AD4ED102AB0EE620A22887A
:102230002146284600F086F926E094ED111AF0EECA
:10224000410A94ED101AB0EE410A2188284600F0A8
:1022500007FA19E0D4ED110AB0EE600A2188284689
:1022600000F04EFC10E0D4ED131AB0EE611AD4ED7C
:10227000111AF0EE610AD4ED101AB0EE610A21884D
:10228000284600F01BFA00BF00BF70BD70B50546C0
:102290000C4694F83C00012806D002280AD00328F6
:1022A0000FD004281BD113E021880022284600F01B
:1022B000C9F814E021884FF48072284600F0C2F873
:1022C0000DE021884FF40072284600F0BBF806E0CC
:1022D00021884FF44072284600F0B4F800BF00BFD8
:1022E00070BD10B503460C46207800F00F00586012
:1022F000207801119960A078617840EA0121D960C5
:10230000E0780001217940EA211119616079217991
:1023100001F00F0140EA0121596193ED2C1AF0EE12
:10232000410A93ED2C1AB1EE411AB0EE410A102188
:10233000D86800F003FC83ED080A93ED2D1AF0EE47
:10234000410A93ED2D1AB1EE411AB0EE410A0C216B
:10235000186900F0F3FB83ED090A93ED2E1AF0EEF5
:10236000410A93ED2E1AB1EE411AB0EE410A0C214A
:10237000586900F0E3FB83ED0A0AA07900EE100A29
:10238000B8EE400A83ED0D0AE07900EE100AB8EECF
:10239000400A83ED0E0A10BD10B54FF48871224833
:1023A000FDF7F7FF4FF488712048FDF7F2FF4FF477
:1023B00088711F48FDF7EDFF4FF488711D48FDF748
:1023C000E8FF4FF488711C48FDF7E3FF4FF4887174
:1023D0001A48FDF7DEFF01201349088011204880CC
:1023E000012081F8580081F83C00B7EE000A084649
:1023F00080ED110AB2EE040A80ED100A9FED100A7A
:1024000080ED130AB7EE000A80ED150AB2EE090A54
:1024100080ED2C0AB3EE0E0A80ED2D0AB2EE040A0E
:1024200080ED2E0A10BD00007800002088010020F9
:1024300098020020A8030020B8040020C80500204E
:102440008FC2F53C2DE9FC4106460C461546601945
:1024500087B2FF208DF800008DF801008DF8020092
:102460008DF803008DF804008DF805008DF8060046
:10247000FC208DF8070008236A4639463046FFF7EE
:1024800091FEBDE8FC81014671EE602AF0EE621A11
:10249000B0EE602A30EE423A01208840401E02EE43
:1024A000900AF8EEE22A63EE222A82EEA13AFDEECD
:1024B000C32A12EE900A70471CB5FEF793FDFFF792
:1024C000DDFCFFF73FFCFFF717FCFFF797FC01224D
:1024D00051031848FEF76EFD4FF4FA70FEF75EFCEC
:1024E000FFF704FEFFF758FF0120FEF757FC00201E
:1024F0000090114901900888002301220A2100F070
:1025000037FB0120FEF74AFC0B4908880A2100F03E
:10251000DDFA0120FEF742FC07490848FFF7B6FE46
:102520004FF47A70FEF73AFC0548FFF767FA00BFF0
:10253000FEE70000000802407800002010000020A4
:10254000380000202DE9F04F2DED068B83B0834637
:102550000C461546B0EE40AAB0EE608AF0EE418A15
:10256000B0EE619AF0EE429AA8B2009094ED2C0A77
:10257000B0EE401A94ED2C0AB1EE400AF0EE400A9B
:102580001020B0EE4A0AFFF77EFF86B294ED2D0AC6
:10259000B0EE401A94ED2D0AB1EE400AF0EE400A7A
:1025A0000C20B0EE480AFFF76EFF87B294ED2E0ABA
:1025B000B0EE401A94ED2E0AB1EE400AF0EE400A59
:1025C0000C20B0EE690AFFF75EFF1FFA80FA0C20BC
:1025D0009FED211ADFED210AB0EE680AFFF753FFE5
:1025E0001FFA80F80C20B1EE041ADFED1C0AB0EEE1
:1025F000490AFFF748FF1FFA80F930128DF80400EE
:10260000F0B28DF80500C7F307108DF80600380703
:10261000000E40EA28208DF8070008F0FF008DF832
:102620000800C9F307108DF809004FEA0970000E81
:1026300040EA2A208DF80A000AF0FF008DF80B000E
:10264000082301AA58460099FFF7ACFD03B0BDEC82
:10265000068BBDE8F08F00000000FA430000000088
:102660002DE9F3412DED020B82B007460E4606F52B
:1026700080701FFA80F802AC03AD20788DF800005E
:1026800060788DF80100A0788DF80200E0788DF870
:10269000030028788DF8040068788DF80500A87884
:1026A0008DF80600E8788DF8070008236A46414651
:1026B0003846FFF777FD06B0BDE8F0812DE9F3431A
:1026C0002DED040B2DED028B85B080460D46B0EE4E
:1026D000608AF0EE418A9FED1F0A28EE000ABCEEE8
:1026E000C00A10EE100A80B202909FED1B0A28EE7D
:1026F000800ABCEEC00A10EE100A80B2019005F507
:1027000040701FFA80F907AC02AE01AF20788DF857
:102710000C0060788DF80D00A0788DF80E00E07840
:102720008DF80F0030788DF8100070788DF811005A
:1027300038788DF8120078788DF81300082303AAF2
:1027400049464046FFF72EFD05B0BDEC028B06B0B2
:10275000BDE8F0830000C84200401C4608B590F870
:10276000582002B908BD8A78332A71D10A798DF8C8
:1027700000204A798DF801208A798DF80220CA79E3
:102780008DF80320CA78522A31D2DFE802F02931CD
:10279000394149515962686E757C848C939AA1A81D
:1027A000B0B8C0C8D0D8F5FDF2F1F0EFEEEDECEB2B
:1027B000EAE9E830303030303030303030303030EE
:1027C000E7E6E5E4E3E230303030303030303030CE
:1027D0003030303030303030303030303030E1E098
:1027E0009DED000A80ED170A022280F8582069E169
:1027F0009DED000A80ED180A032280F8582061E15F
:102800009DED000A80ED190A042280F8582059E154
:102810009DED000A80ED1A0A052280F8582051E14A
:102820009DED000A80ED1B0A062280F8582049E140
:102830009DED000A80ED1C0A072280F8582041E136
:102840009DED000A80ED1D0A082280F8582039E12C
:1028500039E1009B8367092280F8582032E1009B10
:10286000C3670A2280F858202CE18022009B135075
:102870000B2280F8582025E18422009B13500C2263
:1028800080F858201EE19DED000A80ED220A0D22FD
:1028900080F8582016E19DED000A80ED230A0E22F3
:1028A00080F858200EE19022009B13500F2280F8F0
:1028B000582007E19422009B1350102280F85820E2
:1028C00000E19822009B1350112280F85820F9E073
:1028D0009C22009B1350122280F85820F2E09DEDBC
:1028E000000A80ED280A132280F85820EAE09DEDC6
:1028F000000A80ED290A142280F85820E2E09DEDBC
:10290000000A80ED2A0A152280F85820DAE09DEDB1
:10291000000A80ED2B0A162280F85820D2E09DEDA7
:10292000000A80ED2C0A172280F85820CAE09DED9D
:10293000000A80ED2D0A182280F85820C2E09DED93
:10294000000A80ED2E0A192280F85820BAE0B1E082
:10295000A8E09FE096E08DE084E07BE072E06AE032
:1029600062E059E050E047E03EE035E02CE023E053
:102970001AE011E008E0FFE79DED000A80ED2F0A64
:102980001A2280F858209DE09DED000A80ED300A63
:102990001B2280F8582095E09DED000A80ED310A59
:1029A0001C2280F858208DE09DED000A80ED320A4F
:1029B0001D2280F8582085E09DED000A80ED330A45
:1029C0001E2280F858207DE09DED000A80ED340A3B
:1029D0001F2280F8582075E09DED000A80ED350A31
:1029E000202280F858206DE09DED000A80ED360A27
:1029F000212280F8582065E09DED000A80ED370A1D
:102A0000222280F858205DE09DED000A80ED380A12
:102A1000232280F8582055E09DED000A80ED390A08
:102A2000242280F858204DE0009BC0F8E830252291
:102A300080F8582046E0009BC0F8EC30262280F851
:102A400058203FE09DED000A80ED3C0A272280F8E7
:102A5000582037E09DED000A80ED3D0A282280F8DD
:102A600058202FE09DED000A80ED3E0A292280F8D3
:102A7000582027E09DED000A80ED3F0A2A2280F8C9
:102A800058201FE09DED000A80ED400A2B2280F8BF
:102A9000582017E09DED000A80ED410A2C2280F8B5
:102AA00058200FE09DED000A80ED420A2D2280F8AB
:102AB000582007E09DED000A80ED430A002280F8CF
:102AC000582000BF00BF00BF4CE60000F8B5044628
:102AD0000F46E5B2C4F3022607A0006800908DF807
:102AE00000508DF8016004236A4640F2FF710348EC
:102AF000FFF758FBF8BD00000000AA0110000020FD
:102B0000F3B52DED020B81B006460D4605F50070BC
:102B100087B201AC20788DF8000060788DF8010054
:102B2000A0788DF80200E0788DF8030004236A464F
:102B300039463046FFF736FB05B0F0BDB0EE401A1F
:102B400030EEC10AF0EE401AB0EE412A00EE100A53
:102B5000B8EEC00A60EE212A01228A40521E00EE21
:102B6000102AB8EEC03A82EE830A30EE020A7047AD
:102B70002DE9FC5F04460D4616461F46DDE90C892B
:102B800004F00F0AC4F3031B0DA103C9CDE9000132
:102B90008DF800A08DF801B08DF803508DF8046019
:102BA0008DF805708DF806808DF8079008236A4629
:102BB00040F2FF710448FFF7F5FABDE8FC9F000002
:102BC0000000550000000000100000204FF0407091
:102BD000E1EE100A70470000000000000000010252
:102BE00003040607080900000000010203040000B6
:102BF000102C000800000020100000000002000857
:102C0000202C000810000020681700001C0200089B
:102C10000000000010000000010000000024F4008B
:04000005080001C529
:00000001FF
