:020000040800F2
:100000008814002065020008A729000815200008B0
:10001000A5290008D9040008952D0008000000005B
:10002000000000000000000000000000852A000819
:100030006305000800000000A9290008892A0008BB
:100040007F0200087F0200087F0200087F0200088C
:100050007F0200087F0200087F0200087F0200087C
:100060007F0200087F0200087F0200087F0200086C
:100070007F0200087F0200087F0200087F0200085C
:100080007F0200087F0200087F0200087F0200084C
:10009000DD040008E50400087F0200087F02000874
:1000A0007F0200087F0200087F0200087F0200082C
:1000B0007F0200087F0200087F0200087F0200081C
:1000C0007F0200087F0200087F0200087F0200080C
:1000D0007F0200087F0200087F0200087F020008FC
:1000E0007F0200087F0200087F0200087F020008EC
:1000F0007F0200087F0200087F0200087F020008DC
:100100007F0200087F0200087F0200087F020008CB
:100110007F0200087F0200087F0200087F020008BB
:10012000050500087F0200087F0200087F02000822
:100130007F02000800000000000000007F020008AD
:10014000F1040008F90400087F0200087F0200089B
:100150007F0200087F0200087F0200087F0200087B
:100160007F0200087F0200087F0200087F0200086B
:100170007F0200087F0200087F02000800000000E4
:10018000000000007F0200080000000000000000E6
:100190007F02000800000000000000007F0200084D
:1001A0000000000000000000000000007F020008C6
:1001B0007F0200087F0200087F0200087F0200081B
:1001C0007F02000800F002F800F03CF80AA090E876
:1001D000000C82448344AAF10107DA4501D100F002
:1001E00031F8AFF2090EBAE80F0013F0010F18BF93
:1001F000FB1A43F0010318475074000070740000AC
:10020000103A24BF78C878C1FAD8520724BF30C842
:1002100030C144BF04680C60704700000023002414
:1002200000250026103A28BF78C1FBD8520728BF06
:1002300030C148BF0B6070471FB503F0C1FF1FBD41
:1002400010B510BD00F0D0F81146FFF7F5FF03F030
:10025000D7FC00F0EEF803B4FFF7F2FF03BC00F0A8
:10026000F5F800000948804709480047FEE7FEE727
:10027000FEE7FEE7FEE7FEE7FEE7FEE7FEE7FEE756
:1002800004480549054A064B70470000292B000821
:10029000C50100088808002088140020880C002070
:1002A000880C002053EA020C00F069802DE9F04B25
:1002B0004FF00006002B1FBFB3FA83F503FA05F4D5
:1002C00024FA05F65E4012BF1643B2FA82F502FA2E
:1002D00005F4C5F120051EBF22FA05FC44EA0C0412
:1002E000203556EA044C4FEA144418BF641C4FF002
:1002F00000084FF00009904271EB030C39D300293C
:1003000019BFB1FA81F701FA07F6B0FA80F700FADF
:1003100007F6C7F120071EBF20FA07FC46EA0C06C5
:100320002037B6FBF4FCA7EB0507103F07F01F0BC7
:10033000CBF120062CFA06F60CFA0BFB44BFB346B1
:100340000026202FA4BF5E464FF0000B5BEA060C90
:1003500008BF4FF0010B19EB0B0948EB0608ABFB8C
:10036000027C06FB02CC0BFB03CCC01B71EB0C0127
:10037000C1E70B46024641464846BDE8F08B13B53F
:10038000084318BF4FF0FF300146AFF30080BDE8CF
:100390001C4070474FF0000200B513469446964645
:1003A000203922BFA0E80C50A0E80C50B1F1200188
:1003B000BFF4F7AF090728BFA0E80C5048BF0CC036
:1003C0005DF804EB890028BF40F8042B08BF704794
:1003D00048BF20F8022B11F0804F18BF00F8012B06
:1003E0007047704770477047754600F02BF8AE466F
:1003F00005006946534620F00700854618B020B531
:10040000FFF73EFFBDE820404FF000064FF0000729
:100410004FF000084FF0000BAC46ACE8C009ACE868
:10042000C009ACE8C009ACE8C00921F007018D465D
:10043000704710B50446AFF300802046BDE8104079
:10044000FFF709BF0048704710000020014918203D
:10045000ABBEFEE72600020070470146806B036CCE
:10046000026C13F0500F07D0D20648BF00F0FCB862
:10047000806BC26C0846104742F400710164016849
:100480008A6812F0405F01D1027E0AB100F0EAB83A
:10049000CA6A12F4700F02D08A685205F6D44A680C
:1004A00022F020024A60016C21F480710164016C29
:1004B000C904EBD4016C41F00101016400F0D2B831
:1004C000806B40210164416C41F00401416400F003
:1004D000CBB8806B00F0C7B8FEE70000034800F01F
:1004E00097BB00BF014800F093BB00BFE4000020B1
:1004F000034800F08DBB00BF014800F089BB00BF7E
:100500000C010020D04800F0BFBD00BF10B501684D
:100510006FF00F0252FA81F21823B2FBF3F306A434
:10052000E35C40F2FF34A1435F2A88BF0431C0E995
:100530001613084610BD00BF000610160006101660
:10054000B0B5046880682568402825F480250846F1
:100550002560636008BF1046A06008BF0A46E260DD
:10056000B0BD704770470000F8B50022009290F8C7
:100570003C20012A01D1022145E0012280F83C20E3
:100580000A681FFA82FC4FEA4C0414FA82F50A2A20
:1005900004D304681E3D04F10C0602E0046804F173
:1005A000100607273368AF40BB4333608B68AB400E
:1005B00035682B4333604D68062D05D805EB850360
:1005C00004F134015D1F0BE005EB85060C2D87BFA0
:1005D00004F12C01A6F1410504F13001A6F1230537
:1005E0001F230E68AB4026EA03030B600CFA05F3E9
:1005F0000D682B430B606A49A1F541739C4204D0FE
:10060000002180F83C100846F8BD112A0DD0144B8B
:100610009A420AD0122AF3D10A6822F400020A6030
:100620000A6842F480020A60EAE70B6823F4800358
:100630000B600B6843F400030B6009498A42DFD169
:10064000C449C54A0968B1FBF2F101EB81014900D7
:10065000009100990029D3D000990139F8E700BF33
:10066000120000107047704770470000002841D00A
:1006700070B50446006C30B9204600F099F80020AF
:1006800084F83C006064206CC00635D4206C41F2D4
:1006900002118843023042492064086820F4403047
:1006A000086094E80D0025690E6832430A604168CD
:1006B00021F480714160416841EA0521416041684F
:1006C00021F0407141604168194341608168354BB8
:1006D00021F400618160E168826811438160816872
:1006E00021F070618160A26A81689A4206D121F08E
:1006F00040510CE00120704701204CE01143816023
:10070000816821F040518160E16A82681143816013
:10071000816821F002018160217E94F820208368A5
:1007200043EA4101816041686AB141F4006141607E
:1007300041681D4A21F460414160616A02EB413128
:100740004268114301E021F400614160C16A174B26
:1007500021F47001C162E269616903EB0252C36A6C
:100760001A43C262826822F40072826094F83020D8
:10077000836843EA42228260826822F48062826057
:10078000826842EA8121816000206064216C01223C
:1007900062F301012164002184F83C1070BD00BFA8
:1007A000042301400100000F00E0FFFF0000F0FF04
:1007B000F0B587B0044602A81421FFF7EBFD2168CD
:1007C000694881423BD100261E4901964A6900F5DD
:1007D000604042F480724A614A6902F48072019278
:1007E000019A01960A6842F001020A60096801F064
:1007F00001010191032104960391022102910199C3
:1008000002A900F0C7FD104D104F4FF480704FF457
:1008100000514FF400624FF48063C5E90866C5E9F2
:100820000076C5E90266C5E90432C5E90610284626
:1008300000F0E2FC08B1FFF795FEAC63A56307B0DA
:10084000F0BD00BF30380240340100201064024087
:100850007CB504460020019094F83C00012804BFB8
:1008600002207CBD012084F83C0013460A46216822
:100870008868C00710D18868374D40F00100886053
:1008800034480068B0FBF5F000EB4000019001989F
:1008900010B101980138F9E78868C00758D0206C7A
:1008A00040F20175A84300F5807020644868400557
:1008B00004D5206C012565F30D302064206C0025E3
:1008C000C00444BF656C25F0060565646FF0220521
:1008D0000D604D68002045F080654D6084F83C0057
:1008E000A06B1E4D1F4EC5641D4DC0E90F658D6880
:1008F00045F480758D604C3100F00AFD1A4920687E
:10090000D1F80423D2060AD0884221D1886810F099
:10091000405F1DD1886840F08040886018E08842C0
:100920000ED0124A904207D0114A904210D1D1F80D
:100930000413C9060CD103E0D1F80413C90607D487
:10094000816811F0405F03D1816841F0804181608E
:1009500000207CBD0800002040420F00C1040008B8
:10096000D30400085B04000800200140002201407D
:100970000021014090F82020013A012A04D80068A3
:1009800000F11402002004E000F1240201204FF4E1
:100990008021136819431160704770B590F820608A
:1009A0000468013EA568012E0CD815F0E05F0FD059
:1009B000C5F30165032D11D100F1240101204FF48D
:1009C000000232E000F1240101204FF480222CE0EB
:1009D00000F1240101204FF4001226E00120A8407C
:1009E0001860886818B14B6840EAC30301E00868E2
:1009F000430504EB0510D1E903452343C0F88031DA
:100A0000C0F88451097D012905D100F5C2710B6838
:100A100043F480730B605168C0F88C111168012297
:100A2000C0F8881100F5C07100200B681A430A60F5
:100A300070BD0000F0B590F82020013A012A2AD8B4
:100A40003048026842F001020260026822F47C52DF
:100A500002604C69CD694A6A0368012D43EA0222AB
:100A6000026004F01F024FF0010303FA02F2C369AF
:100A700023EA0203C3616FEA020312D025BBC568F3
:100A80001D40C560CE688F8800EBC40547EA064666
:100A90002E640D4611E0416A41F48021416201203B
:100AA000F0BDC5681543C5600E688F8800EBC405AE
:100AB00047EA06462E6401F10C058E682D8800EB8E
:100AC000C40445EA0645656444688F6944EA020542
:100AD0000E69096A002F08BF04EA030545604469EE
:100AE000002E44EA020508BF04EA03050129456116
:100AF00002D1C1691143C161016821F001010160A6
:100B00000020F0BD00660040704770B590F82040AE
:100B1000013C012C6CD8046800290CBFE5682569EC
:100B2000AD076BD004EB0114D4F8B05115F00405F7
:100B30009560D4F8B06104F5D87519BFF608566011
:100B4000760D16602D68002905F00205D560D4F8F1
:100B5000B45105F00F051561D4F8B451C5F307255C
:100B60009561D4F8B4514FEA15455561D4F8B821D0
:100B70001A70026802EB0112D2F8B8214FEA122271
:100B80005A70026802EB0112D2F8B8214FEA124201
:100B90009A70026802EB0112D2F8B8214FEA126291
:100BA000DA70026802EB0112D2F8BC211A710268F5
:100BB00002EB0112D2F8BC214FEA12225A710268EC
:100BC00002EB0112D2F8BC214FEA12429A7102687C
:100BD00002EB0112D2F8BC214FEA1262DA7100680E
:100BE0000CBF00F10C0100F11001002020220AE0EE
:100BF00000F1240101204FF4802204E000F12401DF
:100C000001204FF400120B681A430A6070BD000007
:100C10002DE9F84F044600684669D0F804908768CB
:100C2000D0F80CB0D0F810A0D0F81880F10701D19E
:100C3000002549E0F9070ED001218160B80707D4EB
:100C400078071DD4380721D4204600F015FA02E0B9
:100C5000204600F012FA0025F8051CD520684FF454
:100C600080718160B80507D478050CD4380510D49C
:100C7000204600F003FA0EE0204600F000FA0AE0F9
:100C80004FF40065E8E705F5005504E04FF48055A2
:100C9000E2E705F58045F80316D520684FF480316A
:100CA0008160B80307D4780309D438030AD42046F6
:100CB00000F0E6F908E0204600F0E3F904E005F56D
:100CC000004501E005F58035300707D51BF0100021
:100CD00004D02068102145F40075C160700708D564
:100CE0001BF0080005D020680821C160204600F0F4
:100CF00083F9B00706D52068C068800702D0204677
:100D000000F07CF9700607D51AF0100004D02068B6
:100D1000102145F480650161B00608D51AF008007D
:100D200005D0206808210161204600F077F9F0061F
:100D300006D520680069800702D0204600F06FF9D0
:100D4000B00308D519F0100005D0206810214160CB
:100D5000204600F065F9F00308D519F0080005D029
:100D6000206808214160204600F08CF9300440D50D
:100D70005FEA49703AD506F4807008EA10202843EB
:100D80005FEA8871014648BF41F00201B20558BFD1
:100D900001465FEA48700D4648BF45F004057005FE
:100DA00058BF0D46300521D518F070001ED0103800
:100DB0000009052815D8DFE800F00306090C0F121A
:100DC00045F008050DE045F010050AE045F0200566
:100DD00007E045F0400504E045F0800501E045F4FA
:100DE00080752068816921F070018161206804218B
:100DF00041603DB1606A284360622046BDE8F84F1B
:100E0000FFF782BEBDE8F88F70B5C0B1044690F818
:100E1000200010B9204600F06FF82068016821F02A
:100E20000201016000F096FB0546206841688907D1
:100E300007D500F08FFB401B0B28F6D311E00120F3
:100E400070BD016841F00101016000F083FB0546BF
:100E500020684168C9070BD100F07CFB401B0B28C0
:100E6000F6D3606A052140F400306062012040E062
:100E7000217E0268012922F0800308BF42F080032E
:100E80000360617E0268012922F0400308BF42F03E
:100E900040030360A17E0268012922F0200308BFFD
:100EA00042F020030360E17E0268012942F0100352
:100EB00008BF22F010030360217F0268012922F09D
:100EC000080308BF42F008030360617F026801293C
:100ED00022F0040308BF42F004030360261D6ECE17
:100EE0001A432A43324301391143C16100200121D1
:100EF000606284F8201070BDB0B586B0044601A8C9
:100F00001421FFF747FA20683649884222D0364933
:100F1000884265D1364801684A1C0260334851B99D
:100F200000210091016941F000710161016901F046
:100F3000007100910099002100910168152441F091
:100F4000020101600068142500F0020000904FF4D7
:100F5000407027E00021254800910269244B42F0AF
:100F60008062026102691C6802F08062651C1D607B
:100F70000092009A4CB90091026942F0007202613D
:100F8000026902F000720092009A00910168412407
:100F900041F0020101600068402500F0020000906D
:100FA0004FF44050019000980920059003200490D0
:100FB00000200390022002900E4801A900F0EAF9F7
:100FC00028460021002200F035FB284600F024FBD3
:100FD00020460021002200F02DFB204600F01CFBE3
:100FE00006B0B0BD006800400064004030380240E8
:100FF0008C00002000040240704700000549884230
:1010000008BF01F03DBF0449884208BF01F056BF48
:10101000704700BFE40000200C01002070477047BB
:101020007047B0B5044690F8200001281BD102207B
:1010300084F820002068016821F00101016000F0BF
:1010400089FA054620684068C00712D000F082FA8D
:10105000401B0B28F6D3606A40F400306062052024
:1010600084F8200003E0606A40F400206062012000
:10107000B0BD00206062B0BD7047704770477047D8
:101080007047704770470000F8B504460020009094
:10109000D4E91660574A08211568376881403942FB
:1010A0000CD0226813685B0708D5136823F004038B
:1010B0001360B160616D41F0010161650121814002
:1010C000394208D022685269120604D5B160616DB8
:1010D00041F00201616504218140394208D0226853
:1010E0001268920704D5B160616D41F00401616539
:1010F00010218140394217D020680268120713D5A9
:10110000B16002680168520306D4C90506D40168BB
:1011100021F00801016001E0080301D4216C00E026
:10112000A16C09B120468847E16D202000FA01F248
:101130003A423BD020680368DB0637D5B26094F8AA
:1011400035300268052B19D122F01602026042697F
:1011500022F080024261226C0AB9A26C1AB10268C4
:1011600022F0080202603F208840B060002084F82E
:101170003400012084F83500216D37E00168520306
:101180000CD4C9050ED4016821F0100101600020C3
:1011900084F83400012084F8350003E0080301D40A
:1011A000616C00E0E16B09B120468847606D00B3D7
:1011B000606DC00719D0052184F8351021684FF4FF
:1011C00016500A68B5FBF0F022F001020A60009A9E
:1011D00001328242009202D80A68D207F7D1012078
:1011E00084F83500002084F83400E16C09B1204611
:1011F0008847F8BD080000202DE9F041044600F0C2
:10120000A9F9ACB10546022084F83500002084F825
:1012100034002168086820F0010008600868C007F1
:1012200009D000F097F9401B052837D82168F5E769
:101230000120BDE8F0810868344A271DE8CF00EAA4
:10124000020E43EA0E032B43D4E9050C33433B4320
:10125000D4E90728184340EA0C00636A104340EAC7
:101260000802042B1ED1D4E90A53206B1A43104301
:10127000086051F8140F20F0030040EA050040F028
:101280000402B3B1BCF5005F24D0BCF1000F31D132
:10129000022D32D0012D27D07DB30AE0032620276E
:1012A000032012E00A6051F8140F20F0070040EA12
:1012B000030220460A60FFF729F9E16D3F2202FA96
:1012C00001F18160002701260020676584F8356000
:1012D000BDE8F081032DECD8012640270120DFE88E
:1012E00005F0020C0203F0E7A3F1C070B0FA80F041
:1012F000400904E0032D04D3DBD1C3F300600028D0
:10130000D7D0012640270120DFE700BF3F8010F043
:10131000B0B5044690F83400012828D00120A56D0E
:1013200084F8340094F8350001281DD1022084F897
:101330003500002060652046FFF702F9E26D3F238B
:10134000206803FA02F2216CAA60026842F01602D9
:10135000026019B1016841F008010160016841F0C3
:10136000010101600020B0BD002084F8340002209B
:10137000B0BD0000B0B5044600F0ECF80546974853
:10138000611C007818BF044400F0E4F8401BA04240
:10139000FAD3B0BD2DE9FC4F5F4A072490425F4A63
:1013A00008BF062402444FEAB223062B38BF4FEA97
:1013B000B2244FF0010B4FF000084FF0000E002256
:1013C0000094BEF1200F08BFBDE8FC8F0F680BFA38
:1013D00002F6374200F093804F68122F00F295809A
:1013E0000BFA07F414F0061F00F08F80032303FAB2
:1013F0000EF48368CD68A34305FA0EF52B43836092
:10140000C7F3001345689340B5432B436FEA040CC0
:101410004FEA420A4360C4688D6804EA0C0405FA86
:101420000AF52C43C46047F01004122C12D108F0C6
:101430001C040F2303FA04F56FF0030303EA5207B9
:101440000744D7F820900B6929EA0505A3402B43F0
:101450003B624F68036807F0030403EA0C0304FAD5
:101460000AF423430360FB0049D5002301932E4B6C
:101470002B4F1C461B6822F0030543F48043236076
:101480002368BC4603F4804301933D44019F274FEA
:1014900008F00C030F24B946EF599C4027EA0404D6
:1014A000009F07FA03F3234345F80930DCF80030C6
:1014B0004D6843EA0604EF0358BF23EA0604CCF85C
:1014C0000040DCF80430AF0343EA060458BF23EAC7
:1014D0000604CCF80440DCF80830EF0243EA0604C6
:1014E00058BF23EA06040F4BCCF808401F461B6880
:1014F000AD0243EA060458BF23EA06043C6008F143
:1015000004080EF1020E01325BE7032303FA0EF426
:101510006FEA040CF2467EE7001802400000FEBFAE
:10152000003C01400C3C01404438024008FCFFFFF5
:101530000069084018BF0120704742690A408A428A
:1015400008BF090481617047002A08BF090481614E
:101550007047000005480068704700BF1F480349F6
:1015600000780A6810440860704700BF84080020B3
:1015700080B50B48016841F400710160016841F4D5
:1015800080610160016841F480710160032000F016
:101590006DF8002000F006F800F022F8002080BD71
:1015A000003C024070B50D4E044630784FF47A711D
:1015B000B1FBF0F07E490968B1FBF0F000F0E2FB0E
:1015C00001250F2C08D838B94FF0FF3021460022F2
:1015D000002500F02FF87460284670BD0000002040
:1015E00082B000200B4901904A6842F480424A6070
:1015F0004A6802F480420192019A0090086840F023
:1016000080500860086800F080500090009802B098
:10161000704700BF40380240002808D400F01F0186
:10162000012202FA01F1024A400942F820107047F3
:1016300000E100E0B0B5134B4FF0FF351B68C3F37A
:101640000223DC1E83F0070338BF0024042B28BFCD
:10165000042305FA03F3994305FA04F3A1409A43DE
:101660001143BDE8B04001F097BB00BF05494FF6FC
:10167000FF030A681A4060F30A2203481043086017
:10168000704700BF0CED00E00000FA052DE9F041C5
:10169000002800F08680444B0446D3F800048846B6
:1016A00000F00F00884207D283F80084D3F80004CA
:1016B00000F00F00404574D12068810711D5410723
:1016C00003D5996841F4E0519960010703D5996801
:1016D00041F460419960A1689A6822F0F0021143D8
:1016E0009960C0072BD06068811E022903D2196857
:1016F000890109D455E0012803D11968890303D46D
:101700004FE0196889074CD599681D4621F00301FF
:1017100008439860FFF71EFF064641F2883760686D
:10172000A9682B4601F00C01B1EB800F07D0FFF741
:1017300011FF801BB842F2D90320BDE8F081D3F835
:10174000000400F00F00404507D983F80084D3F867
:10175000000400F00F00404523D12068410705D563
:10176000E1689A6822F4E05211439960000706D5B7
:101770002069996821F4604141EAC00098601C46E4
:1017800000F01AF8A168094AC1F30311515CC8407E
:101790000749086007480068FFF704FF0020BDE81C
:1017A000F0810120BDE8F08100380240F4410008DA
:1017B000080000200400002010B51F4C6068C0F332
:1017C00081011E48DFE801F03602041E1C4810BDEE
:1017D0002268206802F03F02400219485CBF42F2D2
:1017E0000040C0F2F40021680023C1F38811A0FB7F
:1017F0000101FEF757FD21680222C1F3014102EB0E
:10180000410115E02268206802F03F0240020C48C6
:101810005CBF42F20040C0F2F40021680023C1F333
:101820008811A0FB0101FEF73DFD2168C1F30271A3
:10183000B0FBF1F010BD00BF043802400024F400FA
:10184000001BB7002DE9FC4104460078BB4EC007E1
:1018500036D0B06800F00C0004282BD0B06800F03F
:101860000C00082802D17068400223D4B06800F050
:101870000C000C2802D1706840021BD46768B7F5D1
:10188000803F07D03068B7F5A02F40F0188140F4B2
:1018900080203060306840F480303060FFF75AFEBE
:1018A0000546306880030BD4FFF754FE401B6428C4
:1018B000F7D9B1E03068800302D56068002868D0AD
:1018C0002078800734D5B06810F00C0F0FD0B068C6
:1018D00000F00C00082802D17068400207D5B068FB
:1018E00000F00C000C2809D17068400206D4306862
:1018F000800716D5E068012813D04AE0E068002888
:1019000000F0AB808E4801210160FFF723FE054601
:101910003068800705D4FFF71DFE401B0228F7D969
:101920007AE02069316821F0F80141EAC0003060B6
:101930002078000721D5606978B181480121C0F87D
:10194000801EFFF707FE0546706F800715D4FFF76E
:1019500001FE401B0228F7D95EE079480021C0F85B
:10196000801EFFF7F7FD0546706F800705D5FFF76E
:10197000F1FD401B0228F7D94EE0207840070BD438
:10198000A769002F00F0D680B06800F00C0008288E
:1019900045D10120BDE8FC81306C4FF00008C0004B
:1019A0000CD4CDF80480306C4FF0010840F080502A
:1019B0003064306C00F0805001900198614F3868BD
:1019C000C0050FD4386840F480703860FFF7C2FD5E
:1019D00005463868C00505D4FFF7BCFD401B02284A
:1019E000F7D919E0A768012F05D0306F052F45D131
:1019F00040F004003067306F40F001003067FFF7BF
:101A0000A9FD054641F28837306F80074ED4FFF7B5
:101A1000A1FD401BB842F7D90320BDE8FC8148492D
:101A2000002088460866FFF795FD0546022F0AD17B
:101A30004746306880015AD5FFF78CFD411B0320D3
:101A40000229F6D974E03068800173D5FFF782FD72
:101A5000411B03200329F6D36AE0394800210160C5
:101A6000FFF778FD0546306880077FF561AFFFF727
:101A700071FD411B03200229F5D959E020F0010036
:101A80003067306F20F004003067FFF763FD0546D4
:101A9000002FB7D141F28837306F800706D5FFF7A6
:101AA00059FD411B0320B942F6D941E0B8F1000FBE
:101AB0003FF466AF306C20F08050306460E720F473
:101AC00080303060306820F480203060FFF742FDC5
:101AD0000546002F7FF4E5AE05E0FFF73BFD411B17
:101AE0000320642924D830688003F6D4E8E604F1A2
:101AF0001C052FCD246B084340EA8210D9034FF612
:101B0000FF72914340EA0560A1F58031084340EA45
:101B10000470706001203866FFF71CFD04463068D1
:101B2000800107D4FFF716FD011B03200229F6D917
:101B3000BDE8FC810020BDE8FC8100BF0038024008
:101B40000000474200700040F8B5B0B30024846242
:101B5000054690F8510000284FF0000005D12846B6
:101B600085F8504000F02CF8A86A022185F8511041
:101B700095E84E001A430F68324327F040070F6084
:101B80002B691A436B691A43AB6903F4007632433D
:101B9000EE6932432E6A32431043086004206A6AB9
:101BA00000EA134010434860C86920F40060C8612F
:101BB00001206C6585F8510000E001242046F8BD45
:101BC00010B586B0044601A81421FEF7E3FB216896
:101BD0001448814223D10021BE4A0091536900F587
:101BE000504043F480535361536903F4805300938E
:101BF000009B0091136843F001031360126802F028
:101C000001020092052205920322CDE9031202216E
:101C10000291A0210191009901A9FFF7BBFB06B039
:101C200010BD00BF003001402DE9F843044690F894
:101C30005000012804BF0220BDE8F8834FF00109DD
:101C40001D4616460F4684F85090FFF783FC8046E9
:101C500094F85100012851D10120002F00F08B8011
:101C6000002E00F08880032084F851000020606579
:101C7000E686A6862763A087A063C4E91000E087F4
:101C8000A1682068B1F5004F03D1016841F480419B
:101C900001600168490603D4016841F04001016018
:101CA0006168731EE268B1FA81F1B3FA83F34909FE
:101CB0005B091943B2F5006F22D131B137F8021B2D
:101CC000C1602763E08E0138E0866E1CE08ED0B3E1
:101CD00020688168890708D4FFF73CFC002EF5D006
:101CE000A0EB0800A842F1D344E0216B31F8022BAD
:101CF000C2602163E08E0138E086E7E702203AE027
:101D000039B139780173206B01302063E08E0138DE
:101D1000E0866E1CE08EB0B120688168890708D427
:101D2000FFF718FC002EF5D0A0EB0800A842F1D375
:101D300020E0216B09780173206B01302063E08E75
:101D40000138E086E6E720462946424600F02EFEAE
:101D500008B120206065A06838B900200090206894
:101D6000C1680091806800900098606D002818BFDD
:101D7000012000E00320002184F8501084F85190E5
:101D8000BDE8F883411E0020B0EB116F1CBF01209D
:101D90007047044AF023516003490B70072190609B
:101DA0001160704710E000E023ED00E0F0B502465E
:101DB00090F83C00012804BF0220F0BD002082F80A
:101DC0003C0001F10807E0CFD1E900C426F47C56BD
:101DD00025F47055354324F4F0442C432CF4E045AD
:101DE0004B692C4327F4C0452C432343C96923F492
:101DF0008043126819435164F0BD000010B590F89B
:101E00003C300222012B30D080F83D20012280F8A6
:101E10003C2002680B685468B2F1804F24F07004D3
:101E200044EA03049368546014D0114CA24211D0C8
:101E3000104CA2420ED0104CA2420BD00F4CA2422A
:101E400008D0634CA24205D00D4CA24202D0704C87
:101E5000A24204D1496823F0800319439160002213
:101E6000012180F83C2080F83D10104610BD00BFD5
:101E70000004004000080040000C00400018004032
:101E80000040014010B586B0044601A81421FEF7B9
:101E900081FA21684E48814219D100210D4A0091F2
:101EA000136800F5803043F001031360126802F0FC
:101EB0000102009201220592CDE903110221029153
:101EC0004FF480710191009901A9FFF763FA06B000
:101ED00010BD00BF3038024070B50D4690F83C1080
:101EE00004460220012944D084F83D004FEAB200A4
:101EF0000126032884F83C6036D8DFE800F0020AA7
:101F000012222068294600F095FE206850F8181F1C
:101F10000EE02068294600F0B7FE206850F8181F30
:101F200016E02068294600F0DFFE206850F81C1FEC
:101F300041F008010160016821F004010160296994
:101F40000FE02068294600F001FF206850F81C1FB0
:101F500041F400610160016821F480610160296938
:101F60000902026811430160002084F83C0084F8F3
:101F70003D6070BDB0B110B5044690F83D0028B981
:101F8000002084F83C00204600F00EF8022084F87F
:101F90003D002068211D00F0D5FD012084F83D00A2
:101FA000002010BD0120704781B0006808498842B8
:101FB0000BD1002000900748016841F00101016049
:101FC000006800F001000090009801B0704700BF69
:101FD000000001404438024010B504460068012268
:101FE00000F018FE20680A4A40F48061914203D153
:101FF000416C41F400414164816801F00701062908
:1020000003D0016841F001010160002010BD00BF54
:1020100000040140FEE700002DE9F041964C074620
:102020002A20984615460E46A04707F11400094F8E
:1020300080B2B84705F1140080B2B8472B20A04702
:102040003046B8474046B8472C202146BDE8F0410D
:10205000084700BF252600082DE9FE4F121A0C463E
:102060000546A3EB010B002A02DD0120029006E0E9
:10207000C2F1000018BF4FF0FF3202920246BBF1DE
:10208000000F02DD0120019007E0CBF1000018BF36
:102090004FF0FF3BCDF804B083465E464FF000089A
:1020A0004FF000094FF0000A5A45C8BF16461FFA04
:1020B00088F08642B8BFBDE8FE8F17460C9AA8B2DA
:1020C000A1B200F018F80AEB0B000199B042C8BFAA
:1020D0000C4409EB0701B1423A46029FC8BF3D4498
:1020E000B0EB060AD8BF8246B1EB0609D8BF8946D5
:1020F00008F10108DBE710B5144602460B46FFF76E
:102100008BFF2046BDE8104000F08CBA2DE9F84363
:102110008146501E154682B2581E984683B24846E4
:102120000E46FFF779FF089CB0B2404528BFBDE8D6
:10213000F8834F46B8B2A84204D2204600F072FAA3
:102140000137F7E70136EFE770B5484C102120461C
:102150000022FFF7F9F9464D6420A84720461021D8
:102160000122FFF7F1F96420A84742484FF461715A
:1021700001606420A847404E1120B0477820A8474E
:102180003620B0473D4C7020A0473A20B04705208C
:10219000A047B220B0470C20A0470C20A047002049
:1021A000A0473320A0473320A047B720B0473520B1
:1021B000A047BB20B0473220A047C220B047012033
:1021C000A047C320B0471520A047C420B047202017
:1021D000A047C620B0470F20A047D020B047A4207A
:1021E000A047A120A047E020B047D020A04708206A
:1021F000A0470E20A0470920A0470920A04705209E
:10220000A0473120A0473320A0474820A0471720EF
:10221000A0471420A0471520A0473120A047342014
:10222000A047E120B047D020A0470820A0470E20BB
:10223000A0470920A0470920A0471520A04731202A
:10224000A0473320A0474820A0471720A0471420CC
:10225000A0471520A0473120A0473420A0472120C7
:10226000B04729203146BDE87040084700040240CD
:102270007513000834000140392600086126000863
:102280002DE9F04F87B0119E824600EB56000138D1
:10229000904682B2881901381C4683B250460D46DA
:1022A0000691FFF7B9FEA6F10C00C1B2890841EA18
:1022B00080103109750801236A0718BF03EB161156
:1022C00071430491A8F12001C2B23648C9B200EBB3
:1022D000011001903148DDF84880002700EB8110A3
:1022E00000235646029100900392049998B28142CD
:1022F00050D9052A4ED80593DFE802F0030A4C0CAA
:102300004C130299284A01EB410102EB810109E0DB
:10231000019907E00299224A01EB410102EB011108
:1023200000E00099084490F800904FF0000BBBF1DA
:10233000080F2BD0012000FA0BF000EA0900B8F1D9
:10234000000F0DD028B10699B0B289B22246FFF72E
:10235000D2FE0136B0B2A0EB0A00A8420DD10FE0C8
:102360000028109818BF204600F05CF90137F8B239
:10237000B0FBF5F101FB150038B10BF1010BD6E70D
:10238000069856460130069000E00027059B039A08
:102390000133AAE707B0BDE8F08F00BF385E000840
:1023A000684C000878460008044200082DE9F84F00
:1023B0002DED085B0D4683460A2019469246B0EE85
:1023C000408A059301F08AFE00EE100AB8EE400A3A
:1023D00020EE080ADDF85090BDEEC00ADDE9124794
:1023E000B5EEC08A10EE108A4FEA59060020F1EED1
:1023F00010FA0BDACDE900790290584629462D22D1
:102400002346FFF73DFFC8F1000808E0CDE9007959
:1024100002905846294620222346FFF731FF0AF151
:10242000010A05995FFA8AF016FB0010009706EB87
:102430000B07384405EB09010130013182B2B8B213
:102440008BB22946FFF762FE0FFA88F04FF00008C2
:1024500004905FFA8AF05FFA88F9814544D20599C1
:102460002A46401A484519D1139DDDF850B019FB92
:1024700006700095CDF804B04FF0000B80B2154601
:1024800011462E222346CDF808B0FFF7F9FE08F1D9
:1024900001080AF1010A5FFA88F902E015464FF0D7
:1024A000000B6FEA08005044C1B20A2001F016FE8A
:1024B000049A1399B2FBF0F0009114990A22B0FB30
:1024C000F2F2CDE9011B19FB067102EB820289B21F
:1024D000A0EB420040F03002084629462346FFF7B1
:1024E000CFFE08F10108B4E7BDEC085B01B0BDE820
:1024F000F08F2DE9F84F2DED085B0D4607460A20B9
:1025000019461C461646B0EE408A01F0E7FD0490DD
:102510001398DDF850B006F1010800904FEA5B0A0D
:102520005FFA88F01AFB004007EB5B09484405EBB3
:102530000B010130013182B21FFA89F08BB22946BA
:102540000594FFF7E3FD0498129C00EE100AB8EE24
:10255000400A20EE080ABDEEC00A10EE100A00275D
:1025600004905FFA88F0FEB2864238D2059923467D
:10257000401AB04211D1139C0020CDE9004B0290CB
:1025800016FB0A90294680B22E221C46FFF778FEE1
:10259000013708F10108FEB200E01C46F843404450
:1025A000C1B20A2001F09AFD049A1399B2FBF0F02F
:1025B0000A22CDE9001B0021B0FBF2F2029116FBCA
:1025C0000A9102EB820289B2A0EB420040F0300295
:1025D000084629462346FFF753FE0137C1E7BDEC05
:1025E000085B01B0BDE8F08F2DE9FE4FDDF83480C7
:1025F000DDF838A0DDF830B0994615460E4607469E
:102600004FEA58042A785AB1B8B231464B46CDE960
:1026100000B8CDF808A0FFF733FE27440135F1E7F5
:10262000BDE8FE8F10B50446000A00F019F8E0B2CC
:10263000BDE8104000F014B8B0B5084D0446284677
:1026400002210022FEF780FF204600F009F828460C
:1026500002210122BDE8B040FEF776BF000802402B
:102660001CB5944C8DF80700204610210022FEF77F
:102670006BFFA3480DF1070101224FF6FF73FFF72F
:10268000D3FA204610210122FEF75EFF1CBD00BFD9
:102690001CB501F06FFD00F03FFC01F0B9F900F04E
:1026A000BBFB01F05EFABE4800210024FFF794FC5A
:1026B000FFF74AFD002000214FF48C72F0230094B4
:1026C000FFF724FDBDE81C4001F012B8BFB5154866
:1026D000154B164D002101244FF48032C16280F861
:1026E00020100476856280F83040C461C0E9003271
:1026F000C0E90211C0E90414CDE90211CDE90011CD
:10270000FDF7B4FF08B1FDF72DFF03200290054847
:102710006946CDE90044FDF727FF08B1FDF722FF28
:10272000BFBD00BF9C000020002001400100000F41
:10273000B0B50C480C4D00214FF480024FF46023DB
:102740000224C0E90054C0E90211C0E904328161E9
:102750008183FEF759FB18B1BDE8B040FDF702BF19
:10276000B0BD00BFE400002000640040B0B50C48DC
:102770000C4D00214FF480024FF460230224C0E985
:102780000054C0E90211C0E9043281618183FEF77F
:102790003BFB18B1BDE8B040FDF7E4BEB0BD00BFE3
:1027A0000C01002000680040E0B500200190404886
:1027B0000022016841F4800101600068002100F4FA
:1027C0008000019001983820FEF734FF3820BDE8E2
:1027D0008C40FEF721BF00BF2DE9F04F87B00024E9
:1027E0003348069401940168334F41F004010160BD
:1027F0000168002201F0040101910199019401682E
:1028000042F2130A41F080010160016801F0800189
:10281000019101990194016841F001010160016891
:1028200001F00101019101990194016841F0020157
:102830000160006842F2130100F00200019001986B
:102840001C4800F5006683463046B84758461021BC
:1028500000224FF01008B8470BF58065284610217C
:102860000022B8474FF00109CDE90444CDE902A99F
:1028700002AFDFF848A030463946D04758463946BF
:10288000CDE90444CDE90289D0474FF40040CDE9B9
:102890000349029058463946D04728463946CDE983
:1028A0000444CDE90289D04707B0BDE8F08F00BFEE
:1028B0003038024000000240491500089513000816
:1028C00070B50F480A2100220E4EC0E90822C0E967
:1028D0000A2110214FF4007302244FF48275C0E9DD
:1028E0000065C0E90222C0E90442C0E90631FFF7F1
:1028F0002BF918B1BDE87040FDF734BE70BD00BFC4
:102900009401002000300140B0B592B009AC002520
:1029100020461C21CDE91055FDF73CFD01A82021E2
:10292000FDF738FD1E48B44A40F2E731C0E9002502
:10293000C0E90251C0E904558561FFF71BFB08B1EE
:10294000FDF710FE164810A9CDE91055FFF756FA0D
:1029500008B1FDF707FE60200990201D1821FDF742
:1029600019FD0F48214600220025FFF7B5FA08B1EE
:10297000FDF7F8FD01AC20461421FDF70BFD4FF4E7
:1029800000500895069006482146FFF70FFA08B157
:10299000FDF7E8FD0248FFF775FA12B0B0BD00BFC1
:1029A000EC010020FEE77047704700001CB50446AC
:1029B000124813460A4600681149B0FBF1F04FF483
:1029C0007A71484301906068B0F5827F0AD1204651
:1029D000802100F017F870B1606D40F02000606554
:1029E00003201CBD019830B1019801380190206886
:1029F00080680006F6D400201CBD00BF080000203F
:102A000000366E012DE9F041984616460F46044601
:102A1000551C206880683840B84230D1002DF8D06D
:102A2000FEF798FDA0EB0800B042F2D3D4E9000114
:102A30004268B1F5827F22F0E00242600AD1A168CB
:102A4000B1F5004F02D0B1F5806F03D1016821F0DC
:102A500040010160A16AB1F5005F07D1016821F46E
:102A600000510160016841F400510160002084F8C8
:102A70005000012084F851000320BDE8F0810020BF
:102A8000BDE8F0817047000080B5FEF767FD0248A1
:102A900001680131016080BD88000020B0B592B0AE
:102AA00000241F48CDE90944CDE90744009401689A
:102AB000022541F080510160006800F080500090D4
:102AC000009818480094016841F440410160006892
:102AD00000F440400090009807201195CDE90F5078
:102AE000A8200E9006200D904FF48000CDE90B50E9
:102AF0004FF4803006900120059005A8FEF7A2FE55
:102B00004FF4805004904FF4A05003900F20CDE973
:102B10000154009068460521FEF7B8FD12B0B0BD23
:102B200040380240007000400548D0F8801041F461
:102B30007001C0F880104FF000610160704700BF65
:102B400008ED00E0B0B50268B0F1804F0ED0274B21
:102B500098420BD0264B984208D0264B984205D07D
:102B60008B4B984202D0244B984203D14B6822F001
:102B700070021A43B0F1804F20D01C4B98421DD0F8
:102B80001B4B98421AD01B4B984217D01B4B9842B4
:102B900014D01B4B984211D01A4B98420ED0164BB2
:102BA00098420BD07A4B984208D0174B984205D0E8
:102BB000164B984202D0164B984203D1CB6822F4B0
:102BC00040721A434D690B688C6822F080022A43D8
:102BD0000260C46283626E4B40F480629A4204BF1A
:102BE0000969016301214161B0BD00BF00040040DB
:102BF00000080040000C00400000014000180040A8
:102C0000001C0040002000400040014000480140FE
:102C10000044014010B501F01F010123046A8B40FC
:102C200024EA0303036202FA01F1026A114301621A
:102C300010BD0000F0B5026A554E22F0010202629A
:102C40000B688A68046A24F0020422434468856998
:102C500025F073052B4340F48065B54205D1CF685C
:102C600022F00C0227F004073A43B54205D1D1E91E
:102C7000055624F440742C4334434460836149680E
:102C800041630262F0BD00BFF0B5026A404E22F01F
:102C9000100202620B688A68046A24F0200444EA85
:102CA00002124468856925F4E64545EA032C40F4A0
:102CB0008065B54207D1CF686FF0400303EA071380
:102CC00022F0C0021A43B54207D1D1E9053524F4F8
:102CD000406444EA830343EA85044460C0F818C0B2
:102CE000496881630262F0BDF0B5026A284E22F4A1
:102CF000807202620B688A68046A24F4007444EAF1
:102D000002224468C56925F0730545EA030C40F4C6
:102D10008065B54208D1CF6840F2FF433F0227EA01
:102D2000030322F440621A43B54207D1D1E90535C5
:102D300024F4405444EA031343EA05144460C0F801
:102D40001CC04968C1630262F0BD00BF70B5026A71
:102D50000F4E22F4805202620C688A68036A23F4E0
:102D6000005343EA02324368C56925F4E64545EA63
:102D7000042440F48065B54204D14D6923F48043B6
:102D800043EA85134360C46149680164026270BD0F
:102D900000040140FEE7000010B5074C00F00F03EF
:102DA0002344044AB0F1FF3FC8BF831808011870DC
:102DB00010BD00BF00E400E014ED00E0F0B5154ADE
:102DC0004FF0000CBCF1040F17D0CCF10503012427
:102DD000A1B28B420ED902EB410101EB40052F4617
:102DE00031F8106037F8021D01348E4284BF3E80F6
:102DF0002980EDE70CF1010CE4E702EB400080884C
:102E0000F0BD00BF024803490522FDF721BD00BF08
:102E10009C00002090000020FFF7F4BF06480178D6
:102E200009B100F0B1BA417801394AB2002A48BF6D
:102E300006214170704700BF7C00002090ED001A11
:102E400003EE101A31EE402AB8EE433AB4EEC32A2C
:102E5000F1EE10FA09DC494203EE101AB8EEC33A5B
:102E6000B4EEC32AF1EE10FA07DA9FED042A30EE31
:102E7000410A00EE021A80ED001A7047CDCCCC3D1D
:102E8000F8B50020CDE9000039480DF10E016A4681
:102E900000F0A2F8BDF80E0070B99DF8000000F037
:102EA0000F00022803D0012806D10F4801E00E4888
:102EB000D830694600F0B8FB8FBD00BF1CB50020BC
:102EC000084CCDE900002B486A46214600F084F802
:102ED000208800B11CBD044869466C3000F0A4FB9A
:102EE0001CBD00BF5C05002018040020B0B500F038
:102EF00015F81F4C2046FEF794F81E4D2846FEF7A5
:102F000090F820460221FDF735FD28460221BDE854
:102F1000B040FDF72FBD00BFFFF7E8BFB0B58AB0E6
:102F2000012000216C460790069108902046182148
:102F3000FDF730FA0E4D21462846FDF77BFD284669
:102F4000FEF76FF828460221FDF714FD094D0E200B
:102F50000990059028462146FDF76CFD2846FEF7AE
:102F600060F828460221FDF705FD0AB0B0BD00BF9C
:102F7000E40000200C010020B0B588B013460C46D8
:102F800001AA00210025FDF7C0FD10B90198059D9B
:102F90002080E8B208B0B0BDB0B586B005460020CC
:102FA0000493CDE90200CDE90010694628460123CB
:102FB0001446FDF7F2FC60B169462846224602231A
:102FC000FDF7EBFC28B16946284622460423FDF7AD
:102FD000E4FC002006B0B0BDFFF7CEBFFFF7DCBFBA
:102FE000E0B54FF0FF33CDF803300093FB231144DD
:102FF0008DF8073089B26A460823FFF7EFFF8CBDD2
:10300000FEB5CA4890F90000062800F28D81DFE87D
:1030100010F007001E003F008200C300FD003F01CA
:10302000C34818250078C34A00280CBF47F67C50D7
:103030001F20C14E0024CDE9000596200A214FF63D
:10304000FF730294B047BD4ACDE9004516E0B84889
:10305000B84A06780024182596200A214FF6FF73F7
:10306000CDE900450294FFF7BFFA002EB34AB24EF5
:103070000CBF47F67C501F20CDE9000502940A20C2
:1030800037214FF6FF73B047AD4ACDE9004520E048
:10309000A748A84A06780024182596200A214FF64A
:1030A000FF73CDE900450294FFF79EFAA34A0A2078
:1030B00037214FF6FF73CDE900450294FFF794FAEC
:1030C000002E9F4A9C4E0CBF47F67C501F20CDE936
:1030D00000050294142068214FF6FF73B047994A07
:1030E000142080214FF6FF73CDE900450294B047CC
:1030F000954A142098214FF6FF73CDE900450294BC
:10310000B047924A1420B0214FF6FF73CDE9004535
:103110000294B047FCE08648864A874D0778002431
:10312000182696200A214FF6FF73CDE90046029437
:10313000A847824A0A2037214FF6FF73CDE900469F
:103140000294A8477E4A142068214FF6FF73CDE908
:1031500000460294A847002F0CBF47F67C501F2062
:10316000784ACDE90006142080214FF6FF730294BF
:10317000A847754A142098214FF6FF73CDE9004601
:103180000294A847714A1420B0214FF6FF73CDE98D
:1031900000460294A847BBE06548664A664F067839
:1031A0000024182596200A214FF6FF73CDE900452B
:1031B0000294B847614A0A2037214FF6FF73CDE9E0
:1031C00000450294B8475E4A142068214FF6FF7309
:1031D000CDE900450294B8475A4A142080214FF6A1
:1031E000FF73CDE900450294B847002E0CBF47F6A7
:1031F0007C501F20544ACDE90005142098214FF639
:10320000FF730294FFF7F0F9009437E04848494A09
:10321000494F06780024182596200A214FF6FF739F
:10322000CDE900450294B847444A0A2037214FF6B9
:10323000FF73CDE900450294B847414A1420682144
:103240004FF6FF73CDE900450294B8473D4A14207C
:1032500080214FF6FF73CDE900450294B8473A4A02
:10326000142098214FF6FF73CDE900450294B8472A
:10327000002E0CBF47F67C501F200090334A1420CC
:10328000B0214FF6FF73CDE90154FFF7ADF93FE0F0
:103290002748284A284E05780024182796200A2116
:1032A0004FF6FF73CDE900470294B047234A0A2046
:1032B00037214FF6FF73CDE900470294B047204A0B
:1032C000142068214FF6FF73CDE900470294B04700
:1032D0001C4A142080214FF6FF73CDE90047029469
:1032E000B047194A142098214FF6FF73CDE90047E3
:1032F0000294B047154A1420B0214FF6FF73CDE970
:1033000000470294B0471F24002D08BF47F67C54A5
:1033100000201821CDE9004102900DA21420C821FF
:103320004FF6FF73FFF760F9FEBD00BF7D00002080
:103330007C00002025760008E92500082976000891
:103340001F76000813760008197600080D7600082D
:103350004B4420203A00000010B5094A1378632B33
:1033600084BF4FF0FF3010BD064C44F8330004EB2F
:10337000C300C1808180581C1070002010BD00BFA8
:103380008000002060050020534890F900000138BB
:10339000022888BF7047514951F8200000F006BD4F
:1033A0004D4890F90000032808D002280CD00128CD
:1033B00018BF70474048DC4900F0BAB8DA4800F15D
:1033C000D8013D4800F0B4B8D74800F16C013B4843
:1033D00000F0AEB8404890F900000138022888BFDC
:1033E00070473E4951F8200000F0B6B83A4890F9CD
:1033F0000000032808D002280FD0012818BF70470A
:10340000C9490020487005E0C748002180F8D9105C
:1034100000F1D801284800F0D2B8C348002180F854
:103420006D1000F16C01254800F0C9B82A4890F9E8
:103430000000032808D002280FD0012818BF7047C9
:10344000B9490120487005E0B748012180F8D9103A
:1034500000F1D801184800F0D2B8B348012180F833
:103460006D1000F16C01154800F0C9B81A4890F9C8
:1034700000000138022888BF7047184951F8200021
:1034800000F0A6BD144890F90000032808D00228D7
:103490000CD0012818BF70470748A34900F068B84E
:1034A000A14800F1D801044800F062B89E4800F13C
:1034B0006C01024800F05CB8E40000200C01002020
:1034C000054890F900000138022888BF7047034979
:1034D00051F8200000F02AB90C000020DC4100085F
:1034E000E0B54FF0FF33CDF803300093FD231144D6
:1034F0008DF8073089B26A460823FFF76FFD8CBD4F
:103500001CB5FFF77DFD00F025FC4FF6FF740A2087
:1035100068210A22F0230094FEF79EFD4FF4877085
:1035200068214FF48772F0230094FEF795FD1CBDCF
:1035300091F93C203AB1022A07D0012A18BF7047FE
:103540004FF4807203E0002201E04FF4007291F921
:10355000001089B2FFF744BD10B504464030142175
:10356000FCF718FF04F158001421FCF713FF10BDFD
:1035700091F93C20022A11D0012A16D0F2B991ED1E
:10358000100AD1ED110A91ED122A91ED131AD1ED25
:10359000141A91F9001089B200F064BB91ED110A80
:1035A00091F9001089B200F0C4BD91ED100AD1ED7F
:1035B000110A91F9001089B200F098BD704710B55A
:1035C0000C4691F93C1031B1022906D001290BD1EA
:1035D0004FF4807203E0002201E04FF4007294F98E
:1035E000001089B2FFF77CFF04F140001421FCF7C2
:1035F000D1FE04F158001421FCF7CCFE10BD91F966
:103600003C203AB1022A07D0012A18BF70474FF474
:10361000807203E0002201E04FF4007291F9001083
:1036200089B200F08AB8000010B50A78B3EE091A22
:10363000BBEE0E2A02F00F0242600A781209826085
:103640004A788B7843EA0222C260CB780C791B015E
:1036500043EA141300EE102A0361B8EEC00A20EE0C
:10366000010A9FED201A0A7980EE010ABAEE091AC2
:103670004C7902F00F0244EA022230EE010A80ED9A
:10368000080A00EE103A9FED181A4261B8EEC00A1F
:1036900020EE010A9FED151A80EE010A30EE020AB3
:1036A00080ED090A00EE102AB8EEC00AB3EE042A33
:1036B00020EE020A80EE010ABAEE041A30EE010A88
:1036C00080ED0A0A8A7900EE102AB8EE400A80EDF1
:1036D0000D0AC97900EE101AB8EE400A80ED0E0A04
:1036E00010BD00BF00FF7F470000704200F07F4523
:1036F00010B50D4C4FF4A2712046FCF74BFE022092
:10370000012184F82C0184F8140184F8D80084F88D
:10371000C00084F8A80084F86C1084F8540084F881
:103720003C00217010BD00BF18040020B0B500F1AE
:1037300058053ECD40303EC0B0BDE0B54FF0FF3340
:10374000CDF803300093FC2311448DF8073089B283
:103750006A460823FFF742FC8CBD0000B0B500208C
:103760000024FFF72BFB1C4D00EE100A05F10801A9
:10377000E880B8EE400A08460A21FFF75FFBE888B8
:1037800040F2BA22A0F2BD21B1F5957F4FF00001C1
:1037900088BF01212971A0F2DD51B1F5957F4FF06D
:1037A000000188BF0121E970A0F6F12191424FF09C
:1037B000000188BF0121A970A0F69901B1F5957F9C
:1037C0004FF00001A0F1010088BF0121697062285B
:1037D00088BF01242C70B0BD70000020FDF7BABE78
:1037E000F8B50D460446FFF7F9FFA1682669431AAC
:1037F000711BB1FA81F1277D226849098F4208D1F6
:10380000AE420ED1934217D9607DA8B901206075F0
:1038100012E093420DD218440025801AC4E9020533
:103820000AE0934208D9607D012804BF002060753A
:1038300002E00022C4E902022175607DF8BD0000AB
:10384000F0B5B6483B4C3C4B3C4D00210A223D4E66
:103850004175C0E9021101610260C0E9061101620F
:10386000816680F86510C0E9161101660265C0E93D
:10387000105384644FF4A065314C8584C0E91B115A
:1038800080F8741080F8B510C0E92A11C0F8B010A3
:10389000C0F8A020C0E924632B4E2C4FC0F89840FC
:1038A000052480F87540C0E92E11C0F8C010A0F8BA
:1038B000C450C0E93863C0F8E870254FC0F8F02064
:1038C00080F80511C0E93E11C0F80011A0F81451AC
:1038D000C0E94211C0F8101180F85511C0E9521129
:1038E000C0F85011C0F84021C0E94C63C0F83871ED
:1038F000C0E95611C0F86011A0F8645180F8A51114
:10390000C0E96611C0F8A011C0F89021114A124D0B
:10391000C0E96053C0F8882180F8B411C0E96A1189
:10392000C0F8B0110D49C0E97413C0F8D82180F86F
:10393000B541F0BDD9400008F1390008D540000874
:1039400071400008413D0008013A0008393D000877
:103950003D3D0008213A0008493C00081D2E0008A2
:103960007047FDF7E5BD90F82510082906D0072916
:1039700006D0062918BF7047006C0047806C0047CE
:10398000406C0047B0B513484FF40041FFF7E9FF22
:10399000624C114D01462046A8471048017804F1B9
:1039A0005000A8470E48017804F1A000A8470D4830
:1039B000017804F1F000A8470B48017804F5A070E5
:1039C000A8470A482A46017804F5C870BDE8B04007
:1039D000104700BF00000240E137000870000020DF
:1039E000710000207200002074000020730000208D
:1039F0000248017801310170704700BF8108002042
:103A00000248017801310170704700BF8008002032
:103A100080B5FFF7A5FFBDE88040FFF711BF0000AC
:103A20000248017801310170704700BF8208002010
:103A30002DE9F84FFFF7A6FF384E002505274FF078
:103A4000010842F210794FF0000BBBF5F07F08BF80
:103A5000BDE8F88F06EB0B0484F82570FFF7BEFE77
:103A6000A169884213D9481C11D094F82400042875
:103A70004ED8DFE800F003110C273500607D0028E8
:103A800046D0FFF7ABFEE06184F8248040E0607D23
:103A9000F0BB84F824503BE094F815A0FFF79EFE9D
:103AA000BAF1000F30D0E169401AB0F5C86F2FD9D4
:103AB000FFF794FEE061082084F82500042084F8D4
:103AC000240025E0FFF78AFEE169401A80087C287F
:103AD00014D8607DE0B1022084F82400072010E0B3
:103AE000607D0028D5D0FFF779FEE169401AB0FB70
:103AF000F9F101FB190058B9082002E0062084F80A
:103B0000245084F8250003E0032184F82410206267
:103B10002046FFF728FF0BF1500B96E730020020FC
:103B2000FEB500200B49059000900A6842F004029F
:103B30000A60096801F004010091CDE90300012049
:103B4000CDE9010000983F4801A9FDF723FC06B02C
:103B500080BD00BF303802400022FDF7F5BCFDF704
:103B6000ECBC80B5FFF7DCFF43F23330BDE88040AA
:103B7000AFF300802DE9F04143F2333100EA010454
:103B800030481E4F002501268046102D08BFBDE895
:103B9000F08106FA05F020420BD080B2B0F5805FCC
:103BA00002BFBE804046C7F80080B9883868FFF77A
:103BB000D3FF0135E9E700BF2DE9F04143F233318E
:103BC00000EA01041F480D4F002501268046102DF4
:103BD00008BFBDE8F08106FA05F020420BD080B2A4
:103BE000B0F5805F02BFBE804046C7F80080B9884C
:103BF0003868FFF7B4FF0135E9E700BF1004002083
:103C0000FDF7B6FCFEF74AFFFEF7E6FDFEF7CCFD3A
:103C1000FEF78EFDFEF7AAFDFEF758FDFEF750FEFB
:103C2000FEF772FE074C4FF4005120460122FDF7CB
:103C30008BFC204610210122FDF786FCFEF728FDB3
:103C4000FEE700BF000802404148017809B1FFF7D4
:103C50000DBC417801314AB2062AC8BF002141702B
:103C6000704700BF1CB59FED303AB1EE045A21EE0B
:103C7000834A84EE054A9FED2D5A21EE031ABDEECC
:103C8000C44A14EE102AB3EE0E4A130930EE844AE9
:103C900024EE034A84EE054A8DF80530BDEEC44A91
:103CA00014EE103A9FED224A1C0981EE041A8DF899
:103CB00002401B01BDEEC11A11EE104AB2EE091A04
:103CC00043EA142330EE010A9FED1A1A8DF80440DE
:103CD00020EE010AB3EE091A8DF8033080EE010AD6
:103CE000B3EE041ABDEEC00A10EE103AB2EE040AAA
:103CF0008DF8013032EE000A20EE030A80EE010A50
:103D00001B0A8DF80030BDEEC00A10EE103A8DF897
:103D100007301B0A43EA02128DF806206A46082380
:103D2000FFF75CF91CBD00BF00F07F45000070424A
:103D30000000FA4300FF7F47FFF732BBFFF74ABBA3
:103D400003480178B1FA81F149090170704700BF59
:103D50007C000020BFB5104890F90000451E022DE0
:103D600088BFBFBD0D4850F82540204600F082F9BD
:103D700000201821CDE90001029009A050F825206B
:103D8000C8200A214FF6FF73FEF72EFC204604B030
:103D9000BDE8B04000F056B80C000020E841000833
:103DA000F8750008FF75000806760008AE4991F91D
:103DB0000010062944D8DFE801F0040D172029324D
:103DC0003B00AA48017801314AB2032AC8BF012149
:103DD0000170704790F83C1001314AB2022AC8BF06
:103DE000002180F83C10704790ED160AB7EE001ADB
:103DF00030EE010A80ED160A704790ED170AB7EE13
:103E0000001A30EE010A80ED170A704790ED180A8B
:103E1000B7EE001A30EE010A80ED180A704790EDF7
:103E2000190AB7EE001A30EE010A80ED190A704740
:103E300090ED1A0AB6EE001A30EE010A80ED1A0A69
:103E4000704700BF2DE9FF47DFF864910446002664
:103E5000182755A2962028214FF6FF73CDE9006759
:103E600002964FF6FF7AC84794ED0D0A4FF4FC65B1
:103E7000C8202821022201238DE8E000FEF739FB4B
:103E80004CA2962046214FF6FF73CDE900670296BB
:103E9000C84794ED0E0AC8204621022201238DE86E
:103EA000E000FEF726FB94ED160A444D5C206821E5
:103EB00002220123CDE900A60297A847DFF800817E
:103EC000A420682142464FF6FF73CDE900670296B1
:103ED000C84794ED080AC820682102220123CDE9D1
:103EE00000A60297A84794ED170A5C2080210222C1
:103EF0000123CDE900A60297A847A42080214246CD
:103F00004FF6FF73CDE900670296C84794ED090AA2
:103F1000C820802102220123CDE900A60297A847EC
:103F200094ED180A5C20982102220123CDE900A615
:103F30000297A847A420982142464FF6FF73CDE987
:103F400000670296C84794ED0A0AC8209821022209
:103F50000123CDE900A60297A84794ED190A5C2039
:103F6000B02102220123CDE900A60297A84794EDD3
:103F70001A0A5C20C82102220123CDE900A602977B
:103F8000A84794F93C0002280BD80EA151F8202034
:103F9000462037214FF6FF73CDE900670296FEF702
:103FA00023FBBDE8FF8700BF546D6F733A0000002C
:103FB000E9250008546472693A000000AD23000846
:103FC0002F7600083276000840760008397600081F
:103FD000254991F90010062944D8DFE801F0040DC5
:103FE000172029323B002148017801394AB2012AC1
:103FF000B8BF03210170704790F83C1001394AB2F4
:10400000002A48BF022180F83C10704790ED160A44
:10401000BFEE001A30EE010A80ED160A704790EDEF
:10402000170ABFEE001A30EE010A80ED170A70473A
:1040300090ED180ABFEE001A30EE010A80ED180A62
:10404000704790ED190ABFEE001A30EE010A80EDBC
:10405000190A704790ED1A0ABEEE001A30EE010AF6
:1040600080ED1A0A704700BF7D0000200C00002080
:10407000FFF726BAF8B5816861B100202021CDE9AB
:10408000000102900DA214200A214FF47843FEF79C
:10409000ABFA8FBD4078202100284FF00000CDE919
:1040A000000102904FF014004FF00A014FF4FC633E
:1040B0000CBF06A203A2FEF797FA8FBD5B455252D2
:1040C0004F525D005B53544152545D005B52454179
:1040D00044595D00FFF7AAB9FFF788B902460120ED
:1040E0000B0608BF704750430139F9E7E0B510EE01
:1040F000902A130E8DF804208DF80730130C120A45
:104100008DF806308DF8052010EE102A130E8DF86C
:1041100000208DF80330130C120A01F580718DF820
:1041200002308DF8012089B26A460823FEF756FF57
:104130008CBDE0B510EE102A01F50071019289B234
:1041400001AA0423FEF74AFF8CBD7047704780B573
:10415000FFF76EFCBDE88040FFF700BB704780B5FD
:10416000FFF7CEF94FF48050BDE88040FFF724BD43
:10417000FFF788B910B50B480B4C0121A0470B483D
:104180000221A0470A480521A0470A480A21A04762
:1041900009486421A04709484FF4FA712246BDE856
:1041A000104010474F410008593300085D41000896
:1041B000714100084D4100084B4100085F41000873
:1041C000F1EE100A4FF6FF71C0F2C03120EA010093
:1041D00040F04070E1EE100A704700001804002023
:1041E00084040020F004002018040020840400202F
:1041F000F0040020000000000000000001020304A1
:104200000607080900000000000000000000000090
:1042100000000404040404000004000014140A0054
:10422000000000000000000000000A0A1F0A0A1F28
:104230000A0A000000040E1505060C14150E0400F1
:10424000000012150D152E2C2A1200000000040A81
:104250000A361515291600000202010000000000B0
:1042600000000000100808040404040408081000FA
:1042700002040408080808080404020000000004FE
:10428000150E0E150400000000000008083E080886
:104290000000000000000000000000000202010019
:1042A00000000000003F00000000000000000000CF
:1042B00000000000000200000020101008080404A4
:1042C0000202010000000E1111111111110E000067
:1042D0000000040604040404040E000000000E1193
:1042E00011080402011F000000000E11100C101034
:1042F000110E00000000080C0C0A091F081C000029
:1043000000001F01010F1110110E000000000C121F
:10431000010D1311110E000000001E100808040406
:104320000404000000000E11110E1111110E000006
:1043300000000E11111916100906000000000000FF
:104340000400000000040000000000000004000061
:104350000004040000001008040202040810000019
:10436000000000003F003F000000000000000204C9
:10437000081010080402000000000E1111080404C7
:104380000004000000001C22292D2D1D221C00000D
:10439000000004040C0A0A1E1233000000000F1271
:1043A000120E1212120F000000001E110101010175
:1043B000110E000000000F1212121212120F000054
:1043C00000001F120A0E0A02121F000000001F1236
:1043D0000A0E0A020207000000001C120101391136
:1043E000120C000000003312121E121212330000D1
:1043F00000001F0404040404041F000000003E0821
:104400000808080808080907000037120A060A12F7
:10441000123700000000070202020202223F0000E1
:1044200000003B1B1B1B15151535000000003B123F
:1044300016161A1A1217000000000E111111111190
:10444000110E000000000F12120E020202070000FF
:1044500000000E1111111117190E180000000F1293
:10446000120E0A121237000000001E110106081079
:10447000110F000000001F1504040404040E0000C6
:104480000000331212121212120C0000000033123C
:10449000120A0A0C040400000000151515150E0A76
:1044A0000A0A000000001B0A0A04040A0A1B000092
:1044B00000001B0A0A0A0404040E000000001F0981
:1044C00008040402121F00001C0404040404040471
:1044D00004041C0000020204040408080810100070
:1044E0000E0808080808080808080E00040A00005A
:1044F00000000000000000000000000000000000BC
:104500000000003F02040000000000000000000066
:1045100000000000000C121C123C0000000302020C
:10452000020E1212120E000000000000001C120207
:10453000120C000000181010101C1212123C000087
:1045400000000000000C121E021C000000182404D1
:10455000041E0404041E000000000000003C120CB5
:10456000021C221C00030202020E1212123700006B
:104570000004040000060404040E00000008080003
:10458000000C08080808080700030202021A0A06BD
:104590000A1300000007040404040404041F0000BC
:1045A00000000000000F15151515000000000000A8
:1045B000000F12121237000000000000000C12124F
:1045C000120C000000000000000F1212120E020771
:1045D00000000000001C1212121C10380000000025
:1045E000001B06020207000000000000001E020C73
:1045F000101E000000000004041E0404041C00003F
:1046000000000000001B1212123C0000000000001D
:10461000001B0A0A04040000000000000015150E2B
:104620000A0A000000000000001B0A040A1B000028
:1046300000000000003312120C0804030000000008
:10464000001E0804041E000018080808080C0808CA
:1046500008081800080808080808080808080808D2
:1046600006040404040804040404060016090000F7
:10467000000000000000000000000000000000003A
:104680000000000000000000000000080808080802
:10469000080800001818000000486C2412000000F0
:1046A00000000000000000000000002424247F120D
:1046B00012127F12121200000000081C2A2A0A0C93
:1046C0001828282A2A1C080800000022251515157C
:1046D0002A585454542200000000000C1212120AEE
:1046E00076252911916E00000006060403000000E3
:1046F0000000000000000000004020101008080822
:1047000008080810102040000002040808101010CB
:1047100010101008080402000000000008086B1CBC
:104720001C6B0808000000000000000008080808D2
:104730007F080808080000000000000000000000DA
:104740000000000006060403000000000000000056
:10475000FE0000000000000000000000000000005B
:1047600000000000060600000000804040202010ED
:10477000100808040402020000000018244242420B
:104780004242424224180000000000080E080808B7
:1047900008080808083E00000000003C4242422091
:1047A00020100804427E00000000003C4242201815
:1047B00020404042221C0000000000203028242419
:1047C00022227E20207800000000007E0202021AD1
:1047D00026404042221C0000000000382402021A39
:1047E00026424242241800000000007E22221010BF
:1047F00008080808080800000000003C4242422463
:1048000018244242423C0000000000182442424268
:1048100064584040241C00000000000000001818EC
:104820000000000018180000000000000000000850
:1048300000000000000808040000004020100804E8
:1048400002040810204000000000000000007F006B
:1048500000007F000000000000000002040810209B
:1048600040201008040200000000003C4242464084
:1048700020101000181800000000001C225A555586
:1048800055552D42221C0000000000080818141481
:10489000243C224242E700000000001F2222221E88
:1048A00022424242221F00000000007C42420101DD
:1048B00001010142221C00000000001F224242426E
:1048C00042424242221F00000000003F4212121EDC
:1048D00012120242423F00000000003F4212121E2C
:1048E00012120202020700000000003C2222010115
:1048F00001712122221C0000000000E742424242D6
:104900007E42424242E700000000003E08080808DC
:1049100008080808083E00000000007C1010101075
:10492000101010101010110F0000007722120A0E44
:104930000A1212222277000000000007020202027F
:1049400002020202427F000000000077363636364F
:104950002A2A2A2A2A6B0000000000E346464A4A17
:1049600052525262624700000000001C2241414145
:1049700041414141221C00000000003F42424242AE
:104980003E020202020700000000001C22414141D9
:1049900041414D53321C60000000003F4242423E04
:1049A0001212222242C700000000007C4242020490
:1049B00018204042423E00000000007F49080808DD
:1049C00008080808081C0000000000E742424242B4
:1049D00042424242423C0000000000E742422224A0
:1049E00024141418080800000000006B49494949C4
:1049F0005555362222220000000000E742242418E8
:104A00001818242442E70000000000772222141422
:104A100008080808081C00000000007E2120101073
:104A200008040442423F000000780808080808080B
:104A300008080808080878000000020204040808B2
:104A40000810102020204040001E101010101010E0
:104A50001010101010101E0000384400000000005C
:104A60000000000000000000000000000000000046
:104A700000000000000000FF000608000000000029
:104A80000000000000000000000000000000003CEA
:104A90004278444242FC0000000000030202021A75
:104AA00026424242261A00000000000000000038A2
:104AB0004402020244380000000000604040407898
:104AC0004442424264D80000000000000000003C64
:104AD000427E0202423C0000000000F08808087E8E
:104AE00008080808083E0000000000000000007CE4
:104AF00022221C023C42423C000000030202023A15
:104B00004642424242E700000000000C0C00000E4A
:104B100008080808083E0000000000303000003897
:104B2000202020202020221E00000003020202720A
:104B3000120A1612227700000000000E080808086A
:104B400008080808083E0000000000000000007F80
:104B50009292929292B70000000000000000003B89
:104B60004642424242E70000000000000000003CD4
:104B700042424242423C0000000000000000001B94
:104B800026424242221E0207000000000000007878
:104B900044424242447840E00000000000000077B8
:104BA0004C040404041F0000000000000000007C0E
:104BB00042023C40423E0000000000000008083E67
:104BC000080808080830000000000000000000632A
:104BD0004242424262DC000000000000000000E7A8
:104BE000422424140808000000000000000000EB2C
:104BF00049495555222200000000000000000076BF
:104C000024181818246E000000000000000000E7BF
:104C10004224241418080807000000000000007E49
:104C200022100808447E000000C020202020201010
:104C3000202020202020C000101010101010101074
:104C400010101010101010100006080808080810A6
:104C500008080808080806000C32C200000000001E
:104C60000000000000000000000000000000000044
:104C70000000000000000000000000000000000034
:104C80000000000000000000000000000000000024
:104C90000000000000000000000000000000000014
:104CA0006000600060006000600060006000400024
:104CB00020002000200000000000000060006000D4
:104CC00060000000000000000000000060066006B8
:104CD000300398018800440000000000000000003C
:104CE00000000000000000000000000000000000C4
:104CF00000000000000000000000000000000000B4
:104D00001002100210021002FE07FE07080208013E
:104D1000080108010801FE07FE070401040104015F
:104D2000040100000000000000000000000040003E
:104D30004000F00158034C03CC034C0058007000B5
:104D4000E000C001C00140034C035C034C03480178
:104D5000F0004000400000000000000000000000E3
:104D60000E010A01910091009100510051003A009A
:104D7000AE03A002500450044804480448048402CE
:104D8000840300000000000000000000000000009C
:104D900038006C006C006C006C006C002C009807F4
:104DA0001C011A01330133016301E300C308C60982
:104DB0003C07000000000000000000000C001C0088
:104DC00010001000080004000000000000000000B7
:104DD00000000000000000000000000000000000D3
:104DE00000000000000000000000000000040002BD
:104DF00000018000800040004000200020002000D2
:104E000020002000200020004000400080008000A2
:104E10000001000200040000000000000200040085
:104E2000080010001000200020004000400040005A
:104E30004000400040004000200020001000100012
:104E40000800040002000000000000000000000054
:104E5000000000004000C0004000460C4E0FD00192
:104E6000F0015E0F460C40004000400000000000D2
:104E70000000000000000000000000000000000032
:104E800000000000000040004000400040004000E2
:104E9000FE0F4000400040004000400000000000C5
:104EA0000000000000000000000000000000000002
:104EB00000000000000000000000000000000000F2
:104EC0000000000000000000000000000C001C00BA
:104ED00010001000080004000000000000000000A6
:104EE00000000000000000000000000000000000C2
:104EF000FE070000000000000000000000000000AD
:104F000000000000000000000000000000000000A1
:104F10000000000000000000000000000000000091
:104F20000000000000000000000000001C001C0049
:104F30001C0000000000000000000000000400064B
:104F400000020003000100018000800040004000DA
:104F500060002000200010001000080008000C0075
:104F60000400060002000000000000000000000035
:104F70000000F00098010C030C0306060606060666
:104F8000060606060606060606060C030C0398012E
:104F9000F000000000000000000000000000000021
:104FA000000040007C006000600060006000600065
:104FB00060006000600060006000600060006000F1
:104FC000FC030000000000000000000000000000E2
:104FD0000000F80084010203060306030003000139
:104FE0008001C000600020001000080204020602D8
:104FF000FE030000000000000000000000000000B0
:1050000000007800C6008601860180018001C00092
:1050100070008001000100030003060306038601FF
:10502000F800000000000000000000000000000088
:10503000000080018001C001A001A0019001880151
:10504000880184018201FE0F8001800180018001BE
:10505000E007000000000000000000000000000069
:105060000000FC0304000400040004000400F40039
:105070008C0104030003000306030603820184017C
:10508000F800000000000000000000000000000028
:105090000000E00118030C030C0004000600E60108
:1050A00016030E0606060606060604060C0218037C
:1050B000F000000000000000000000000000000000
:1050C0000000F8070C060402040100010001800042
:1050D0008000400040004000600060006000600010
:1050E0006000000000000000000000000000000060
:1050F0000000F8010C030606060606060C021C0357
:10510000F000C8010C0306060606060606060C0398
:10511000F00100000000000000000000000000009E
:105120000000F0000C010C03060206060606060647
:1051300006078C0678060006000300030C018C01AC
:1051400078000000000000000000000000000000E7
:10515000000000000000000000000000E000E0008F
:10516000E00000000000000000000000E000E0009F
:10517000E00000000000000000000000000000004F
:10518000000000000000000000000000600060005F
:1051900000000000000000000000000000006000AF
:1051A000600040002000200000000000000000001F
:1051B00000040002000180004000200010000800F0
:1051C00004000800100020004000800000010002E0
:1051D00000040000000000000000000000000000CB
:1051E000000000000000000000000000FE070000BA
:1051F00000000000FE0700000000000000000000AA
:10520000000000000000000000000000000000009E
:10521000040008001000200040008000000100028F
:10522000000400020001800040002000100008007F
:10523000040000000000000000000000000000006A
:105240000000E0031806040C040C0C0C0C0C000706
:10525000800140004000400000000000E000E0004D
:10526000E00000000000000000000000000000005E
:10527000E00018030C02CC0564056605A605B6041B
:10528000B604B604B604B602E4010C040C0218031A
:10529000F00000000000000000000000000000001E
:1052A0000000600060005000D00090009000880076
:1052B00088010801F8010403040304020202020643
:1052C0000F0F0000000000000000000000000000C0
:1052D0000000FE008C030C030C030C030C038C0178
:1052E000FC000C030C020C060C060C060C060C034E
:1052F000FE010000000000000000000000000000AF
:105300000000E00318030C060C0404040600060069
:10531000060006000600060006040C040C02180332
:10532000F00000000000000000000000000000008D
:1053300000007F008C010C030C030C060C060C060D
:105340000C060C060C060C060C060C030C038C0158
:105350007F000000000000000000000000000000CE
:105360000000FF030603060406040600860086000C
:10537000FE0086008600860006000604060406027B
:10538000FF0300000000000000000000000000001B
:105390000000FF03060306040604060086008600DC
:1053A000FE00860086008600060006000600060055
:1053B0001F000000000000000000000000000000CE
:1053C0000000F00018010C020C02040206000600A6
:1053D00006000600C60F060306030C030C031803A1
:1053E000F0000000000000000000000000000000CD
:1053F00000000F0F06060606060606060606060647
:10540000FE07060606060606060606060606060643
:105410000F0F00000000000000000000000000006E
:105420000000FC036000600060006000600060003D
:10543000600060006000600060006000600060006C
:10544000FC0300000000000000000000000000005D
:105450000000F807C000C000C000C000C000C000CD
:10546000C000C000C000C000C000C000C000C0003C
:10547000C000C60066003C00000000000000000004
:105480000000CF038601C600460026001600360045
:105490002E006E004600C600860086010601060347
:1054A0008F07000000000000000000000000000066
:1054B00000001F00060006000600060006000600A9
:1054C00006000600060006000600060406040602A2
:1054D000FF030000000000000000000000000000CA
:1054E00000000707860386038E038E034E034E03D8
:1054F0004A035A035A033A033203320332031203B4
:10550000870700000000000000000000000000000D
:1055100000008E0F0C021C021C02340234026402D2
:1055200064024402C4028402840384030403040367
:105530001F0200000000000000000000000000004A
:105540000000F00098010C030C0206060606060691
:10555000060606060606060606060C020C03980159
:10556000F00000000000000000000000000000004B
:105570000000FF00060306060606060606060606E7
:105580008603FE0006000600060006000600060070
:105590001F000000000000000000000000000000EC
:1055A0000000F00098010C030C0206060606060631
:1055B000060606060606060676064C02CC03980189
:1055C000F000800700030000000000000000000061
:1055D0000000FF0106030606060606060606060389
:1055E000FE004600C6008600860106030603060686
:1055F0000F0E00000000000000000000000000008E
:105600000000F8020C030602060206000E003C0031
:10561000F800E003800300070206020606060C03FA
:10562000F001000000000000000000000000000089
:105630000000FE076204610861086000600060000D
:10564000600060006000600060006000600060005A
:10565000F801000000000000000000000000000051
:1056600000001E070C020C020C020C020C020C02C1
:105670000C020C020C020C020C020C020C021801AF
:10568000F00000000000000000000000000000002A
:1056900000000F070602040104010C010C01880040
:1056A00088009800980050005000700030002000E2
:1056B00020000000000000000000000000000000CA
:1056C0000000F70E620442044604460464026402C9
:1056D000E402E4029C029C01980198018801880080
:1056E0008800000000000000000000000000000032
:1056F00000009E070C01080118019000B000600036
:10570000200060006000D0009000880108010403C0
:105710008E070000000000000000000000000000F4
:1057200000000F0F060404020C0208011801B80063
:10573000B000700060006000600060006000600009
:10574000F801000000000000000000000000000060
:105750000000FC070C0206030201800180004000EB
:105760004000200020001000180008040C0404026F
:10577000FE0300000000000000000000E003200025
:105780002000200020002000200020002000200019
:105790002000200020002000200020002000200009
:1057A00020002000E00300000000000000000000D6
:1057B0000400040008000800100010001000200081
:1057C000200040004000C000800080000001000177
:1057D0000002000200020004000000007C00400003
:1057E00040004000400040004000400040004000B9
:1057F00040004000400040004000400040004000A9
:10580000400040007C0000000000600090000801A3
:105810000000000000000000000000000000000088
:105820000000000000000000000000000000000078
:105830000000000000000000000000000000000068
:105840000000000000000000000000000000000058
:105850000000000000000000000000000000000048
:10586000000000000000FF0F0000000018006000B2
:105870000000000000000000000000000000000028
:105880000000000000000000000000000000000018
:105890000000000000000000000000000000000008
:1058A000000000000000000000000000F0010C03F8
:1058B0000C030003E0031C030E03060306038E0B18
:1058C0007C0E00000000000000000000000000004E
:1058D00008000E000C000C000C000C00CC013C0376
:1058E0001C060C060C060C060C060C060C021C030F
:1058F000E4010000000000000000000000000000C3
:10590000000000000000000000000000F0008C011A
:105910008C01860106000600060006020C020C013E
:10592000F000000000000000000000000000000087
:105930000002C003000300030003000378038C038C
:105940000C030603060306030603060304038C0781
:1059500078010000000000000000000000000000CE
:10596000000000000000000000000000E00118033B
:1059700008020C060C06FC070C000C0018041802A8
:10598000E001000000000000000000000000000036
:105990000000C0036006300630003000FE01300019
:1059A0003000300030003000300030003000300077
:1059B000FC010000000000000000000000000000EA
:1059C000000000000000000000000000F007D80602
:1059D0008C018C018C019801F8000C00FC00CC03B8
:1059E000060306038E03F80000000000000000001C
:1059F00008000E000C000C000C000C00EC011C0355
:105A00000C030C030C030C030C030C030C030C031E
:105A10009E070000000000000000000000000000E1
:105A20000000600060000000000040007C0060009A
:105A30006000600060006000600060006000600066
:105A4000FC03000000000000000000000000000057
:105A50000000C001C001000000000001F001800151
:105A6000800180018001800180018001800180012E
:105A700080018001CC007C000000000000000000DC
:105A800008000E000C000C000C000C008C038C00B5
:105A90008C004C006C005C008C008C010C010C0331
:105AA0009E07000000000000000000000000000051
:105AB00040007C00600060006000600060006000EA
:105AC00060006000600060006000600060006000D6
:105AD000FC030000000000000000000000000000C7
