:020000040800F2
:10000000E03000246D0300088B3600085D340008E2
:1000100089360008C70500081942000800000000E2
:10002000000000000000000000000000D1380008BF
:10003000C9050008000000008D360008D33800080C
:100040008703000887030008870300088703000868
:100050008703000887030008870300088703000858
:100060008703000887030008870300088703000848
:100070008703000887030008870300088703000838
:10008000870300088703000887030008D1050008DC
:1000900087030008DD0500088703000887030008C0
:1000A0008703000887030008870300088703000808
:1000B00087030008313A00083D3A0008870300082A
:1000C00087030008870300088703000887030008E8
:1000D00087030008870300088703000887030008D8
:1000E000870300088703000800000000870300085A
:1000F00087030008870300088703000887030008B8
:1001000087030008870300088703000887030008A7
:100110008703000887030008870300088703000897
:100120008703000887030008870300088703000887
:10013000870300088703000887030008E905000813
:1001400000000000000000000000000000000000AF
:100150008703000887030008870300088703000857
:100160008703000887030008870300088703000847
:1001700087030008870300088703000800000000C9
:100180008703000887030008870300088703000827
:100190008703000887030008870300088703000817
:1001A0008703000887030008870300080000000099
:1001B00087030008870300088703000887030008F7
:1001C000870300088703000800000000000000000B
:1001D000000000000000000087030008000000008D
:1001E000000000000000000000000000000000000F
:1001F00000000000000000008703000887030008DB
:100200008703000887030008000000008703000838
:100210008703000887030008870300088703000896
:1002200087030008000000008703000800000000AA
:100230008703000887030008000000008703000808
:100240008703000887030008870300088703000866
:100250008703000887030008870300088703000856
:100260008703000887030008870300088703000846
:1002700087030008870300088703000800000000C8
:100280008703000887030008870300088703000826
:10029000000000008703000887030008000000003A
:1002A0000000000087030008870300088703000898
:1002B00087030008870300088703000887030008F6
:1002C00087030008870300088703000800F002F88E
:1002D00000F03CF80AA090E8000C82448344AAF1A4
:1002E0000107DA4501D100F031F8AFF2090EBAE8A2
:1002F0000F0013F0010F18BFFB1A43F0010318475A
:100300006447000084470000103A24BF78C878C1D1
:10031000FAD8520724BF30C830C144BF04680C600B
:10032000704700000023002400250026103A28BF53
:1003300078C1FBD8520728BF30C148BF0B60704757
:100340001FB504F03FFB1FBD10B510BD00F001F953
:100350001146FFF7F5FF04F03BF900F01FF903B475
:10036000FFF7F2FF03BC00F027F9000009488047BF
:1003700009480047FEE7FEE7FEE7FEE7FEE7FEE787
:10038000FEE7FEE7FEE7FEE704480549054A064B9F
:100390007047000071390008CD020008E00C00240D
:1003A000E0300024E02C0024E02C002453EA020C6E
:1003B00000F069802DE9F04B4FF00006002B1FBFC5
:1003C000B3FA83F503FA05F424FA05F65E4012BF8A
:1003D0001643B2FA82F502FA05F4C5F120051EBFF4
:1003E00022FA05FC44EA0C04203556EA044C4FEA94
:1003F000144418BF641C4FF000084FF000099042ED
:1004000071EB030C39D3002919BFB1FA81F701FA56
:1004100007F6B0FA80F700FA07F6C7F120071EBF0B
:1004200020FA07FC46EA0C062037B6FBF4FCA7EBE3
:100430000507103F07F01F0BCBF120060CFA0BFB52
:100440002CFA06F644BFB3460026202FA4BF5E4612
:100450004FF0000B5BEA060C08BF4FF0010B19EBE5
:100460000B09ABFB027C48EB0608C01B06FB02CC69
:100470000BFB03CC71EB0C01C1E70B460246414676
:100480004846BDE8F08B13B54FF000004FF0000177
:10049000AFF30080BDE81C40704710B5203AC0F0B3
:1004A0000B80B1E81850203AA0E81850B1E8185075
:1004B000A0E81850BFF4F5AF5FEA027C24BFB1E8B2
:1004C0001850A0E8185044BF18C918C0BDE8104023
:1004D0005FEA827C24BF51F8043B40F8043B08BF2C
:1004E0007047D20728BF31F8023B48BF11F8012BF3
:1004F00028BF20F8023B48BF00F8012B70474FF09F
:10050000000200B5134694469646203922BFA0E863
:100510000C50A0E80C50B1F12001BFF4F7AF09076F
:1005200028BFA0E80C5048BF0CC05DF804EB890060
:1005300028BF40F8042B08BF704748BF20F8022BA3
:1005400011F0804F18BF00F8012B704770477047BB
:100550007047754600F02CF8AE46050069465346D4
:1005600020F00700854618B020B5FFF70DFFBDE865
:1005700020404FF000064FF000074FF000084FF00A
:10058000000B21F00701AC46ACE8C009ACE8C0099B
:10059000ACE8C009ACE8C0098D46704710B5044608
:1005A000AFF300802046BDE81040FFF7D8BE000042
:1005B00000487047800C002401491820ABBEFEE7BC
:1005C000260002007047FEE7704772B6FEE70000A3
:1005D000014800F027BB000014000024014800F08F
:1005E00021BB000014000024014800F01BBB0000E8
:1005F00014000024F0B503684FF6FC716D4C426B9B
:10060000D3F884508D4345EA8205C3F884500368CB
:1006100053F8845F068F25F47F0545EA06451D6083
:10062000836B654D9F180268D2F888308B4343EA8C
:100630008703C2F88830026852F8883F868F23F417
:10064000FE0343EA06431360066856F8A03FC26BF8
:100650008B4307EB420243EA82033360076857F893
:10066000A03FB0F8406023F4FE0343EA06433B603A
:10067000D0E9103603FB06220368D3F8B0608E433E
:1006800046EA8206C3F8B0600368B0F84860D3F861
:10069000B07027F4FE0747EA0646C3F8B060D0E919
:1006A0001267036806FB0722D3F8AC608E4346EA64
:1006B0008206C3F8AC60D0E91467036806FB072222
:1006C000D3F8F0608E4346EA8206C3F8F060036810
:1006D000B0F85860D3F8F07027F47C1747EA064664
:1006E000C3F8F0600368876D53F8C06F02EB4702F0
:1006F0008E4346EA820119600168B0F85C20D1F8A7
:10070000C03023F47C1343EA0242C1F8C0200168E0
:1007100090F86020D1F8C03023F07C5343EA0262A5
:10072000C1F8C020416B04EB8101C166826B01EB13
:1007300082020267C36B02EBC3024267D0E9103446
:10074000634302EB83028267D0E91234634302EB16
:100750008302C267D0E91434634302EB8302C0F81A
:100760008020836D02EBC303C0F88430C46D826EB9
:10077000544303EB8403C0F88830046E544303EB06
:100780008402C0F89020AA420AD9D0F89C20032104
:1007900042F02002C0F89C2080F898100120F0BDA3
:1007A000002200E004C1D0F890308B42FAD800203B
:1007B000F0BD000000AC0040FCD30040F0B58E68F6
:1007C0000C69D1E9005744EA0604DFB145F08045E1
:1007D0002C43866ED1E906C54F695E4391F82030FF
:1007E00045EA0C05B1F80CC0D0F884E0002047EAD7
:1007F00003630C4F1D430EEB860345EA0C45E3E80B
:1008000002450AE044EA8544E3E71418155C001D3C
:10081000D4F8014045EA042410C3CC683C5D84420E
:10082000F3D8F0BDD049000870B5044600F05CFF75
:100830000546601C02D004480078044400F054FFD0
:10084000401BA042FAD370BD0000002410B590F800
:100850009830012B09D0022B07D0D0F89C1041F022
:100860000201C0F89C10012010BD03689C6D0C4271
:1008700003D1DC6D44F0010404E09C6D31EA040412
:100880001FD00324DC658B0505D50368D3F8E04051
:100890001443C3F8E0404B0505D50368D3F8E440A2
:1008A0001443C3F8E4400068084A01EA0203446DB7
:1008B000074A1C434465106840EA917010600020AC
:1008C00010BDDC6D44F00204DCE70000FFFFCF3F09
:1008D00014A8004070B5044690F89800022804D08F
:1008E000D4F89C0040F008000DE02068D0F8C0303B
:1008F00013F07C5F0BD0D0F8C4309B020CD5D4F839
:100900009C0040F40070C4F89C00012070BDD4F835
:100910009C0040F02000F6E7D0F8C400C0F3044586
:1009200020462B46FFF74AFF21680120A840C1F866
:10093000D000C4F89400002070BD704790F8983043
:10094000012B07D0D0F89C1041F00401C0F89C1096
:100950000120704761B10068012913D0D0F8B010B0
:1009600021F0FE4141EA0261C0F8B010002070475A
:100970000068D0F8F01021F07C5141EA0261C0F823
:10098000F010F3E7D0F8A01021F0FE4141EA026137
:10099000C0F8A010EAE770B590F89820012A09D0B5
:1009A000022A07D0D0F89C1041F00201C0F89C1038
:1009B000012070BD0B68CA6883B10B69072A43EA3E
:1009C000427325D00C7A4A6942EA84724968006F02
:1009D00000EBC100C0E90032002070BD072A0DD035
:1009E0000C7AD6060D8A4B6943EA847246EA0543BF
:1009F000C06E49681A4340F82120EDE70B8A4FF09A
:100A00006055D1E9062442EA034245EA0423EFE7B0
:100A10008A69DBE730B590F89850039C012D07D028
:100A2000D0F89C1041F00401C0F89C10012030BDAA
:100A30000D01016845EA820040EA43002043C1F805
:100A40008000002030BD10B504000FD000F03EFC47
:100A50002068C16D21F00301C165204600F094FBC0
:100A60000020C4F89C0084F8980010BD012010BD3F
:100A700070478A0110B504D50068826922F001022E
:100A80008261080205D502F0EBFCBDE8104003F0DE
:100A9000D5BB10BDF0B590F898500024022D04D0BD
:100AA000D0F89C1041F0080129E0402905D04129E7
:100AB00029D0056D8D4219D942E00568D5F8A060AE
:100AC00016F4FE0F12D0D5F8A460760613D0D5F830
:100AD000A460F60105D5D5F8A06016F0004F00D54A
:100AE0000124D5F8A470466F456C24E0D0F89C1022
:100AF00041F0200103E0D0F89C1041F48071C0F86F
:100B00009C100120F0BD0568D5F8B06016F4FE0F0A
:100B1000ECD0D5F8B4607606EDD0D5F8B460F60127
:100B200005D5D5F8B06016F0004F00D50124D5F8F2
:100B3000B470866FC56CC7F305273C44654302E07B
:100B4000456DC66F4D4306EB85052E6816F0804651
:100B500056602E6836D026F060461660D5F800C084
:100B600000262E4F0CF0005CC2F808C0D5F800C07B
:100B70000CF0004CC2F810C0B5F804C01FFA8CFC91
:100B8000C2F81CC0D5F804C0CCF3034CC2F80CC0AA
:100B9000D5F804C00CF4801CC2F814C0D5F804C009
:100BA0000CF4001CC2F818C0D5F804C0CCF3066CD5
:100BB000C2F820C0D5F804C008354FEADC7CC2F882
:100BC00024C008E0C6F38A46C7E700BF15F806C090
:100BD00003F806C0761CD2F80CC017F80CC0B44558
:100BE000F4D840290AD041290CD020294FF0010225
:100BF0000CD200688A40C0F898200DE00068C0F868
:100C0000A84009E00068C0F8B84005E0006801F0BD
:100C10001F018A40C0F89C200020F0BDD049000888
:100C2000704700002DE9FF5FDFF80CB304460BF1BD
:100C30000401DBF8000025680F68AA468007D5F894
:100C40005090696DD5F850806E6D2A6DD5F854C0FE
:100C50002B6D00EA8770009009F470496F6D286D64
:100C600001EA09010191DAF85410DAF85490DAF83F
:100C7000505008F00F0806EA0806029602F0F0024B
:100C800003F071536FEA09061F4000F060700CEA30
:100C9000020CCDF80CC0F20501EA00090CD4E843BF
:100CA000C00509D400214FF48073CAF85030CBF846
:100CB00000102046FFF7B4FF700512D4E84340054A
:100CC0000FD4206800234FF48068D0F8DC20D0F8DF
:100CD000E410C0F85080CBF800301140204600F0FE
:100CE0003AFBDFF858A2009850B12268830F00EA5F
:100CF0000A001065CBF8003020460099FFF71DFE72
:100D0000019850B12268830F00EA0A001065CBF801
:100D100000302046019900F020FB029850B1226873
:100D2000830F00EA0A001065CBF8003020460299D4
:100D300000F0A8FA039850B12268830F00EA0A0075
:100D40001065CBF800302046039900F0A5FA300575
:100D50000CD4E843000509D4236800204FF4006256
:100D60001A65CBF80000204600F0F8FAB00512D45E
:100D7000E84380050FD4206800234FF40078D0F8B2
:100D8000D820D0F8E010C0F85080CBF800301140E7
:100D9000204600F0E1FA30030CD4E843000309D404
:100DA000236800204FF400221A65CBF8000020468B
:100DB00000F066FAF0030CD4E843C00309D42368BA
:100DC00000204FF480321A65CBF80000204600F076
:100DD000C1FA70030CD4E843400309D42268002010
:100DE0004FF480231365CBF80000204600F0B1FAE1
:100DF000B0030FD4E84380030CD4236800204FF4E1
:100E000000321A65CBF80000D4F89C0040F0800056
:100E1000C4F89C00B9F1000F0BD022684FEA997317
:100E200009EA0A001065CBF8003049462046FFF772
:100E300020FE5FB12268BB0F07EA0A001065CBF8FD
:100E40000030D4F89C003843C4F89C003C4920682A
:100E5000884268D1606881468068800763D0D9F88D
:100E60002060D9F82410D9F82080D9F82400D9F8C6
:100E700020C0D9F82470D9F82030D9F82450D9F8F6
:100E8000202003F4FC4306F00F0AD9F824601D402B
:100E9000D9F824B008F030080CF4C07C02F4F02239
:100EA00011EA0A0100EA080807EA0C0706EA020646
:100EB000D9F820A004D0C9F82010204600F046FA46
:100EC000B8F1000005D0616808624146204600F094
:100ED0003FFA6FEA0B0040060ED46FEA0A004006A4
:100EE0000AD460684021C36BC26B01622046190CB2
:100EF00002F03F0200F02BFA2FB16068076239461A
:100F0000204600F022FA35B160680562D4F89C00F2
:100F10002843C4F89C0036B160680662D4F89C008F
:100F20003043C4F89C00D4F89C00002802D020462E
:100F3000FFF79EFDBDE8FF9F10A80040FFFFCF3FD9
:100F400000A000402DE9F04194B08D494C220446A8
:100F50006846FFF7A2FA64B18A4D2068A84202D120
:100F600000F58070606094F898004FF0000820B1A0
:100F700008E0012014B0BDE8F081204684F8998093
:100F800000F022F92068816921F01001816100F0F0
:100F9000ABFB0327064604E000F0A6FB801B0A28F3
:100FA00011D8206880690007F6D42068816941F073
:100FB0000101816100F098FB06460DE000F094FB12
:100FC000801B0A2808D9D4F89C0040F00100C4F81E
:100FD0009C0084F89870CCE720688069C007EDD049
:100FE0002068816941F002018161207C012820682C
:100FF000816937D041F040018161607C012820681F
:10100000816932D021F480418161A07C012820686F
:1010100081692DD041F4805181612068A268816985
:1010200021F44071114381612068816921F0A4019C
:1010300081612068016921F010010161E0680128E7
:1010400019D010B302281BD02068816941F08001BB
:1010500081612068016941F010010161E0680328A5
:101060000ED012E021F04001C6E741F48041CBE709
:1010700021F48051D0E72068816941F0040103E048
:101080002068816941F020018161207E6FF0FF02BC
:10109000D4E90773A68A1102400602EB0727A0F1E4
:1010A0000070384327685B1E184301EB0646304347
:1010B000F861A068B0F5407F11D104F12800A68C3A
:1010C0006FF00F0C89C801EB0641401E02EB0322B2
:1010D000104322680CEB071318430843D060206EBE
:1010E00030B12068626ED0F8C0101143C0F8C01053
:1010F000D4E917126846D14209D02168A36E51F88D
:10110000C82F50F8233022F007021A430A60216CDE
:1011100049B12168626C51F8BC3F50F8226023F05D
:10112000070232430A60A16C51B12168E36C51F8A7
:10113000BC2F50F8233022F0700242EA03120A60FA
:10114000216D51B12168626D51F8BC3F50F8220009
:1011500023F4E06242EA002008602068A84204D13B
:101160006068816821F003018160C4F894800121E6
:10117000C4F89C8084F898102046FFF73BFAF9E603
:10118000E049000800A0004010B500680B49884203
:1011900013D10B48016821F48071016009480321D3
:1011A00000F0DEF8132000F009FB152000F006FB2C
:1011B000BDE810403F2000F001BB10BD00A0004082
:1011C000EC440258000C025810B5B4B00446142187
:1011D0002EA8FFF794F9B8216846FFF790F9254942
:1011E0002068884244D100204FF40041CDE900102E
:1011F0004A0368461B9200F0B1FC08B1FFF7E5F91D
:101200001D48016841F480710160006800F480703D
:10121000339019480C38016841F0080101600068FA
:101220000923032100F00800339000202E910222B0
:101230002EA9CDE92F20CDE93103104800F040F967
:1012400000221320114600F0D7FA132000F0C7FA4D
:1012500000221520114600F0CFFA152000F0BFFA49
:1012600000223F20114600F0C7FA3F2000F0B7FAF5
:1012700034B010BD00A00040EC440258000C0258ED
:1012800070470000034910B5884201D103F01EF9F0
:1012900010BD000014000024704790F89810012938
:1012A00007D0D0F89C1041F00401C0F89C10012038
:1012B0007047022180F89810002201688B6923F0A2
:1012C00001038B61C0F89C201046704710B590F860
:1012D00098100022022906D0D0F89C1041F0080195
:1012E000C0F89C1012E0016803238C6944F00104EB
:1012F0008C6101680DE0322A0AD900BFD0F89C1039
:1013000041F00101C0F89C1080F89830012010BD18
:10131000521C8C69E407EED08C69002224F0100482
:101320008C61016802E0322AE8D8521C8C692407DB
:10133000F9D48C690023012244F002048C61C0F8C6
:10134000943080F89820184610BD70477047704759
:10135000704770477047704770477047704700008C
:101360002DE9F04F4C4D00224FF0010A4FF00F0BCA
:101370008BE000BF0AFA02F919EA01037DD022F0DE
:10138000030606F1B0469407D6F808C4270FDFF825
:101390000C810BFA07FE40450EEA0C0402D14FF017
:1013A000000C39E0DFF8F8C0604502D14FF0010CC5
:1013B00032E0DFF8F0C0604502D14FF0020C2BE0C4
:1013C000DFF8E4C0604502D14FF0030C24E0DFF801
:1013D000DCC0604502D14FF0040C1DE0DFF8D0C046
:1013E000604502D14FF0050C16E0DFF8C8C060453B
:1013F00002D14FF0060C0FE0DFF8BCC0604502D10F
:101400004FF0070C08E0DFF8B4C0604502D14FF0A0
:10141000090C01E04FF00A0C0CFA07FCA44513D1AB
:101420002C689C432C606F684FF0B0449F436F6002
:1014300067689F43676027689F432760D6F8084422
:1014400024EA0E04C6F8084406680323D7084FEAC6
:1014500042084FEA427C03FA08F34FEADC6C1E4371
:1014600006600BFA0CF400EB87073E6AA6433E6267
:10147000C4689C43C460446800E005E024EA0904B1
:10148000446084689C438460521C31FA02F37FF408
:1014900071AFBDE8F08F00008000005800000258D6
:1014A0000004025800080258000C025800100258AC
:1014B0000014025800180258001C02580024025858
:1014C0002DE9F84F03247A4D00234FF001094FF026
:1014D000B04B4FF00F0AE4E009FA03F6324078D03F
:1014E0000F7907F00307012F01D0022F1AD1876867
:1014F0004FEA430ED1F80CC004FA0EF827EA0807A9
:101500000CFA0EFC4CEA070CC0F808C0476891F8CA
:1015100004C0B743CCF3001C0CFA03FC4CEA070CE4
:10152000C0F804C00E79F643B6070BD0C6684FEA80
:1015300043088F6804FA08FC26EA0C0607FA08F745
:101540003743C7600E7906F00306022E12D1DE087B
:101550000F694FEA437C00EB8606B646366A4FEACF
:10156000DC6C0AFA0CF807FA0CF726EA080637438F
:10157000CEF820700F7906684FEA430807F003079A
:1015800004FA08FC07FA08F726EA0C063743076056
:101590004E6816F4403F1CD0464E376847F00207AD
:1015A000376036689F0706F00206009623F00306B0
:1015B00006F1B046B6463F0FD6F80864DFF8F8806B
:1015C0000AFA07FC404526EA0C0603D14FF0000C4E
:1015D0003AE065E0DFF8E4C0604502D14FF0010C6D
:1015E00032E0DFF8DCC0604502D14FF0020C2BE0A6
:1015F000DFF8D0C0604502D14FF0030C24E0DFF8E3
:10160000C8C0604502D14FF0040C1DE0DFF8BCC03B
:10161000604502D14FF0050C16E0DFF8B4C060451C
:1016200002D14FF0060C0FE0DFF8A8C0604502D1F0
:101630004FF0070C08E0DFF8A0C0604502D14FF082
:10164000090C01E04FF00A0C0CFA07FC4CEA060CFE
:10165000CEF808C44F68DBF80060FF0226EA0206F5
:1016600000D516435F46CBF80060D1F804C0DBF824
:1016700004605FEA8C2C26EA020600D516437E60E1
:101680006E684F6826EA0206BF0300D516436E60F7
:101690002E684F6826EA0206FF0300D516432E6027
:1016A0005B1C0A6832FA03F67FF416AFBDE8F88FC8
:1016B00080000058F4440258000002580004025808
:1016C00000080258000C025800100258001402587A
:1016D00000180258001C0258002402580AB1816107
:1016E00070470904FBE7000001488068704700006C
:1016F000000000240248816802781144816070472C
:1017000000000024032010B500F096F801F038F82E
:101710000F4A104914681368C4F3032203F00F033F
:101720008A5CC95C02F01F0201F01F01D0400A4A26
:1017300020FA01F11160094908600F2000F010F84B
:1017400008B1012010BD00F02BF8002010BD0000F2
:1017500018440258544A0008100000240C000024C9
:1017600070B50D4D04462878A0B14FF47A71B1FBE5
:10177000F0F00A490968B1FBF0F001F030FB48B91C
:10178000102C07D200222146501E00F035F8002010
:101790006C6070BD012070BD000000240C000024AE
:1017A000054808B5016841F002010160006800F0D9
:1017B0000200009008BD0000F444025800280DDB30
:1017C000410900F01F028900012001F1E021904051
:1017D000C1F88001BFF34F8FBFF36F8F70470028B0
:1017E00009DB410900F01F028900012001F1E0211D
:1017F0009040C1F8000170470E4BF0B41B680D46D5
:10180000C3F30223C3F10706042E00D90426191DD1
:10181000072901D2002300E0DB1E012404FA06F1AF
:101820009C40491E2940641E994014402143F0BC4D
:1018300002F0F3BC0CED00E0064900F0070210B521
:101840004FF6FF040868044B204040EA022018438A
:10185000086010BD0CED00E00000FA05134970B5FA
:101860000A68D243520705D5096801F00701814291
:1018700013D118E00A6822F0070202430A60FFF75A
:1018800033FF0A4D4FF47A760446083D07E000BF67
:10189000FFF72AFF001BB04201D9012070BD286864
:1018A000C0438004F4D4002070BD00000C480258EE
:1018B00010B500F01FFF05490968054AC1F3021180
:1018C000515C01F01F01C84010BD000020440258C7
:1018D000544A0008494930B5484C0B1D0A68143475
:1018E00009681D68246802F00303C5F30012C1F300
:1018F0000531C4F3CC04002914FB02F200EE102AD7
:10190000F8EE400A75D03F4A9FED3D1AB7EE000A47
:101910006BB1DFED3D1A012B01D0022B64D002EE3A
:10192000101A1168F8EE422A81EEA22A21E0334C07
:10193000283C23689B0612D5344B246801EE901A8C
:101940001168C4F3C104F8EE612AE34001EE903A55
:10195000C1F30801F8EE611A81EEA22A0BE001EE54
:10196000901ADFED2B2A00BFF8EE611A116882EEA3
:10197000A12AC1F3080101EE901A1168F8EE611A6C
:1019800040EE811A71EE800A62EE200AC1F3462110
:1019900001EE101AB8EE411A31EE001AC0EE811AAB
:1019A000BCEEE11A80ED001A1168C1F3064101EEA8
:1019B000101AB8EE411A31EE001AC0EE811ABCEED0
:1019C000E11A80ED011A1168C1F3066101EE101AE7
:1019D000B8EE411A31EE000A80EE801ABCEEC10A60
:1019E00080ED020A30BD04E001EE901ADFED092A15
:1019F000BAE70021016041608160F3E728440258A2
:101A000000000039384402580024744A0090D00382
:101A10000024744C001BB74B494930B5484C0B1D92
:101A20000A681C3409681D68246802F00303C5F3C2
:101A30000022C1F30551C4F3CC04002914FB02F2C7
:101A400000EE102AF8EE400A75D03F4A9FED3D1A8D
:101A5000B7EE000A6BB1DFED3D1A012B01D0022B6E
:101A600064D002EE101A1168F8EE422A81EEA22A22
:101A700021E0334C283C23689B0612D5344B246864
:101A800001EE901A1168C4F3C104F8EE612AE34034
:101A900001EE903AC1F30801F8EE611A81EEA22A34
:101AA0000BE001EE901ADFED2B2A00BFF8EE611A71
:101AB000116882EEA12AC1F3080101EE901A1168A3
:101AC000F8EE611A40EE811A71EE800A62EE200A89
:101AD000C1F3462101EE101AB8EE411A31EE001A98
:101AE000C0EE811ABCEEE11A80ED001A1168C1F354
:101AF000064101EE101AB8EE411A31EE001AC0EE9E
:101B0000811ABCEEE11A80ED011A1168C1F3066179
:101B100001EE101AB8EE411A31EE000A80EE801A7A
:101B2000BCEEC10A80ED020A30BD04E001EE901A5D
:101B3000DFED092ABAE70021016041608160F3E727
:101B40002844025800000039404402580024744AD6
:101B50000090D0030024744C001BB74B2DE9FE4FBE
:101B60000546DFF800A450F8081B0024FD4FC943C8
:101B7000019005F1280026460AF1240A0090080188
:101B80001DD4686E50B1B0F5801F0CD0B0F5001FA9
:101B90000ED0B0F5401F1ED001240FE0386840F48D
:101BA0000030386017E00198022101F071FD03E078
:101BB0000098022101F0FCFD04000CD02646288884
:101BC000C043C00523D4A86D05281ED2DFE800F06D
:101BD0000C11161B1B006A6EDAF8001021F440117C
:101BE0001143CAF80010EAE7386840F40030386062
:101BF00009E00198002101F04BFD03E0009800216D
:101C000001F0D6FD0446C4B100E001242646288830
:101C1000DFF85083C04308F12C0840052FD4D5F8D5
:101C2000A400B0F5C00F28D010DCB8B1B0F5001F8B
:101C300019D0B0F5800F0FD11AE0AA6DDAF80010B4
:101C400021F007011143CAF80010E0E7B0F5000FDA
:101C500013D0B0F5200F10D001240FE0386840F405
:101C60000030386009E00198002101F011FD03E027
:101C70000098002101F09CFD044694B12646288876
:101C8000C043000530D4D5F8A800B0F1407F29D07A
:101C900011DCC0B1B0F1807F1AD0B0F1007F10D15B
:101CA0001BE0D5F8A420D8F8001021F460011143FE
:101CB000C8F80010E3E7B0F1806F13D0B0F1A06F67
:101CC00010D001240FE0386840F40030386009E09B
:101CD0000198002101F0DCFC03E00098002101F0F4
:101CE00067FD044694B126462868DFF878B2C04301
:101CF0000BF1200B80011FD4E86CD8B110280FD055
:101D0000202812D0302815D0012414E0D5F8A820BE
:101D1000D8F8001021F0E0611143C8F80010E3E7A3
:101D2000386840F40030386004E00198022101F086
:101D3000AFFC044674B126462888C043C0042BD4A7
:101D4000E86DB0F5005F20D00DDCA0B1B0F5805F8C
:101D50000FD115E0EA6CDBF8001021F030011143DF
:101D6000CBF80010E8E7B0F5405F13D0B0F5804F36
:101D700010D001240FE0386840F40030386009E0EA
:101D80000198002101F084FC03E00098002101F09B
:101D90000FFD04468CB126462888C043800429D410
:101DA000286EB0F5403F23D010DC08B3B0F5803F7B
:101DB00014D0B0F5003F0FD115E0EA6DDAF800104D
:101DC00021F4E0411143CAF80010E5E7B0F5802F97
:101DD0000ED0B0F5A02F0BD001240AE0019801210C
:101DE00001F056FC03E00098012101F0E1FC0446FB
:101DF00094B126462888C04340042AD4D5F8AC00C4
:101E0000B0F1405F23D010DC08B3B0F1805F14D094
:101E1000B0F1005F0FD115E02A6EDAF8001021F45E
:101E2000E0211143CAF80010E4E7B0F1804F0ED072
:101E3000B0F1A04F0BD001240AE00198012101F07C
:101E400027FC03E00098012101F0B2FC044674B1C4
:101E500026462888C04300041FD4E86ED8B1B0F1EC
:101E6000805F0ED0B0F1005F10D0012414E0D5F8EF
:101E7000AC20D8F8001021F0E0411143C8F8001060
:101E8000E7E7386840F40030386004E00198012149
:101E900001F0FEFB044674B126462868C043C00129
:101EA0001ED4A86CD0B101280ED0022811D003286E
:101EB00014D0012413E0EA6EDAF8001021F040514A
:101EC0001143CAF80010E8E7386840F40030386081
:101ED00004E00198022101F0DBFB04466CB12646C8
:101EE0002868C043400255D41F48016841F48071FE
:101EF0000160FFF7F9FB81460EE0AA6CDBF80010E9
:101F000021F003011143CBF80010E9E7FFF7ECFBE8
:101F1000A0EB090064283BD813480068C005F5D53C
:101F2000BCBBDFF84090B5F8B01009F14409D9F80E
:101F3000000001F4407100F44070884211D0D9F8DB
:101F40000010D9F8002021F4407142F48032C9F821
:101F50000020D9F8002022F48032C9F80020C9F806
:101F6000001003E02C44025800480258D5F8B00095
:101F7000B0F5807F19D1FFF7B7FB029011E000BFE9
:101F8000FFF7B2FB0299411A41F28830814208D929
:101F9000032426462878DFF81494C043C00721D0D4
:101FA0003CE0D9F800008007EAD5D5F8B010C1F3BD
:101FB00001200328FE480DD0016821F47C51016006
:101FC000B5F8B020D9F80010C2F30B021143C9F8DC
:101FD0000010DFE7F74A036802EA111223F47C518C
:101FE0001143ECE7A86F182816D005DCA0B108282B
:101FF00008D0102804D10AE020280DD028280BD0C2
:1020000001240AE00198012101F042FB03E000985D
:10201000012101F0CDFB044664B126462878C04377
:1020200080071ED4686F062819D2DFE800F0160C6E
:1020300011161616AA6FD9F8001021F038011143B5
:10204000C9F80010EAE70198012101F021FB03E043
:102050000098012101F0ACFB04467CB100E00124B2
:1020600026462878C04340071FD4D5F8900006289C
:1020700019D2DFE800F0160C111616166A6FD9F89F
:10208000001021F007011143C9F80010E9E7019899
:10209000012101F0FDFA03E00098012101F088FB25
:1020A0000446A4B100E0012426462878C0438006F7
:1020B0002BD4D5F88C00B0F1405F24D011DC10B3E4
:1020C000B0F1805F15D0B0F1005F10D116E0D5F807
:1020D0009020D8F8001021F007011143C8F8001033
:1020E000E3E7B0F1804F0ED0B0F1A04F0BD0012448
:1020F0000AE00198002101F0CBFA03E000980221E8
:1021000001F056FB044694B126462878C0434006A9
:102110002BD4D5F89800B0F5406F24D011DC10B363
:10212000B0F5806F15D0B0F5006F10D116E0D5F87E
:102130008C20D9F8001021F0E0411143C9F80010BB
:10214000E3E7B0F5805F0ED0B0F5A05F0BD00124BF
:102150000AE00198002101F09BFA03E000980221B7
:1021600001F026FB044694B126462878C0430006B9
:102170002BD4D5F89C00B0F5C04F24D011DC10B39F
:10218000B0F5005F15D0B0F5804F10D116E0D5F84E
:102190009820D8F8001021F4E0511143C8F800103D
:1021A000E3E7B0F5004F0ED0B0F5204F0BD001247F
:1021B0000AE00198002101F06BFA03E00098022187
:1021C00001F0F6FA044654B126462878C0430007C9
:1021D0001ED4D5F88000B0F5805F0AD00FE0D5F8A6
:1021E0009C20D8F8001021F460411143C8F8001079
:1021F000EBE70098022101F0DBFA00B10126D5F8E7
:102200008020D9F8001021F440511143C9F8001082
:102210002878C043C00613D4D5F89400B0F5807F69
:1022200005D10098022101F0C3FA00B10126D5F8CA
:102230009420D8F8001021F440711143C8F8001020
:102240002868C043000316D4D5F8A00038B1B0F513
:10225000803F09D0B0F5003F0BD001240AE001987F
:10226000002101F015FA03E00098022101F0A0FA24
:1022700004468CB126462868C043400322D4D5F8D2
:102280008400B0F5801F11D0B0F5001F13D0B0F559
:10229000401F15D0012414E0D5F8A020D8F8001074
:1022A00021F440311143C8F80010E4E7386840F4E5
:1022B0000030386004E00098012101F079FA04460A
:1022C0005CB126462868C043C0031CD4286D70B199
:1022D000B0F5803F10D0012414E0D5F88420D9F85F
:1022E000001021F440111143C9F80010EAE73868E2
:1022F00040F40030386004E00198022101F0C8F990
:102300000446DCB126462868C043800005D4009806
:10231000022101F04DFA00B101262868C043800374
:102320001BD4E86FB8B1B0F5807F10D0B0F5007F56
:1023300011D0B0F5407F0ED001240DE02A6DDBF8FE
:10234000001021F480311143CBF80010DBE738682E
:1023500040F4003038607CB326462868C043C00291
:1023600007D42A6FDAF8001021F000411143CAF8AF
:1023700000102868C043800207D4AA6EDAF8001063
:1023800021F080711143CAF800102868C043400052
:1023900009D40748016821F4004101600168D5F8BB
:1023A000B420114301602868C04306E05444025839
:1023B00010440258CFFFFF001DE007D46A6DDBF820
:1023C000001021F040511143CBF800102868C043A1
:1023D000000208D4D5F88820D9F8001021F4400173
:1023E0001143C9F8001028790024C04300F001000F
:1023F000204309D00EE0EA6FD9F8001021F44071B3
:102400001143C9F80010A8E70198002101F040F934
:1024100000B106462879C04300F00200204305D1F0
:102420000198012101F034F900B106462879C04332
:1024300000F00400204305D10198022101F028F9A1
:1024400000B106462879C04300F00800204305D1BA
:102450000098002101F0ACF900B106462879C0438C
:1024600000F01000204305D10098012101F0A0F9EF
:1024700000B106462879C04300F02000044304D18F
:102480000098022101F094F900B916B10120BDE8CD
:10249000FE8F0020FBE700002DE9F05F04000F46EF
:1024A0007ED0DFF83882D8F8000000F00F00B84284
:1024B0000CD2D8F8001021F00F013943C8F80010F1
:1024C000D8F8000000F00F00B84269D12078844DA0
:1024D00040070AD52069296801F07001884204D9B3
:1024E000296821F070010143296020787C4E361D57
:1024F00000070AD56069316801F07001884204D98B
:10250000316821F07001014331602078C0060AD59E
:10251000A069316801F4E061884204D9316821F48E
:10252000E061014331602078DFF8B4B180060BF13F
:10253000080B0CD5E1695846DBF8002002F0700268
:10254000914204D9026822F070020A4302602078A6
:1025500080070AD5E068296801F00F01884204D994
:10256000296821F00F01014329602078C0073ED07F
:102570005B49A2682868183920F47060104328600D
:102580006068022818D0032819D00968012819D0DA
:10259000490700294ADADFF848A1AAF1080A00E051
:1025A00044E0DAF8002022F007020243CAF80020D3
:1025B000FFF79AF8814612E009688903E9E709689C
:1025C0008901E6E7C905E4E7FFF78EF8A0EB09010A
:1025D00041F28830814202D90320BDE8F09F616852
:1025E000DAF8000000F03800B0EBC10FECD1207831
:1025F00080070AD5E068296801F00F01884204D2FB
:10260000296821F00F0101432960D8F800104046E5
:1026100001F00F01B9420BD9016821F00F013943D4
:102620000160006800F00F00B84201D00120D4E73B
:10263000207840070AD52069296801F07001884296
:1026400004D2296821F07001014329602078000735
:102650000AD56069316801F07001884204D231689E
:1026600021F07001014331602078C0060AD5A069CD
:10267000316801F4E061884204D2316821F4E061FC
:1026800001433160207880060CD5E1695846DBF8BB
:10269000002002F07002914204D2026822F070021F
:1026A0000A43026000F06CF80E492A682B68C2F3F6
:1026B000032203F00F038A5CC95C02F01F0201F0E1
:1026C0001F01D040084A20FA01F111600749086053
:1026D00007480068BDE8F05FFFF742B800200052ED
:1026E00018440258544A0008100000240C0000242A
:1026F0000400002430B500F043F80B4A0B490C4BA2
:1027000015681468C5F3032204F00F048A5C095DA0
:1027100002F01F0201F01F01D040064A20FA01F129
:1027200019601060084630BD18440258544A000829
:10273000100000240C00002400B5FFF7DBFF054962
:102740000968054AC1F30211515C01F01F01C8403C
:1027500000BD00001C440258544A000800B5FFF7B1
:10276000C9FF05490968054AC1F30221515C01F01E
:102770001F01C84000BD00001C440258544A000814
:10278000454970B545480968434B103B11F0380284
:1027900008D00111082A03D0102A0BD0182A0BD018
:1027A000084670BD19688906FBD51968C1F3C101D7
:1027B000C84070BD3A4870BD3749374D18310C1DBF
:1027C00024350A68096826682D6802F0030406F0BB
:1027D0000102C1F30511C5F3CC0515FB02F200EEB1
:1027E000102AB8EE400AE9B32F4ADFED2E0AB7EE01
:1027F000001A6CB1DFED2D1A012C01D0022C43D050
:1028000002EE101A1068F8EE422A81EEA22A1EE0AB
:102810001C68A40611D51B6801EE901A1168C3F359
:10282000C103F8EE612AD84001EE900AC1F3080016
:10283000F8EE611A81EEA22A0BE001EE901ADFEDAC
:102840001C2A00BFF8EE611A106882EEA12AC0F3BC
:10285000080001EE900AF8EE611A40EE201A31EEFF
:10286000810A00E015E022EE000A1068C0F346205D
:10287000401C00EE900AF8EE600A80EE201ABCEED2
:10288000C10A10EE100A70BD01EE901ADFED092AA0
:10289000D8E7002070BD0000104402580090D0031B
:1028A00000366E0100000039304402580024744A9A
:1028B0000024744C001BB74B2DE9F05F04007DD061
:1028C000FF4F2078FE4D1837DFF8F483103DC00726
:1028D00048D0D8F80000396800F03800102815D02A
:1028E000182803D101F0030002280FD06068B0F56A
:1028F000803F12D010B1B0F5A02F18D0286820F476
:1029000080302860286820F4802009E0286880034F
:1029100028D560680028D2D024E0286840F48030B0
:102920002860606888B1FEF7DFFE064609E0286887
:1029300040F480202860F0E7FEF7D6FE801B642874
:102940007ED828688003F7D50CE0FEF7CDFE06465A
:1029500005E000BFFEF7C8FE801B6428F0D8286899
:102960008003F7D42078800756D5D8F80000DFF828
:102970005093396810F03800A9F10C090ED01828CE
:1029800001D188070AD0E068A8B3296821F01901AD
:1029900001432960FEF7A8FE064628E028684007A4
:1029A00002D5E06800288AD0E168286820F0190084
:1029B00008432860FEF798FE064606E0D2E000BF16
:1029C000FEF792FE801B0228BAD828684007F7D588
:1029D000217CD9F8002022F0FE4242EA0161C9F8C8
:1029E000001019E0FEF780FE801B0228A8D8286896
:1029F0004007F7D5ECE7FFE7286820F001002860E2
:102A0000FEF772FE064604E0FEF76EFE801B02280B
:102A100096D828684007F7D42078C00646D5D8F85D
:102A20000000DFF89C92396800F03800A9F1040931
:102A3000082812D0182805D101F00300012800E071
:102A4000CEE00AD0E0690028286820D040F080005D
:102A50002860FEF749FE064615E02868C00502D545
:102A6000E06980287ED194F82010D9F8002022F067
:102A70007C5242EA0161C9F8001017E0FEF734FE0B
:102A8000801B0228A0D82868C005F7D5EBE720F006
:102A900080002860FEF728FE064604E0FEF724FECC
:102AA000801B022890D82868C005F7D4207800073A
:102AB00029D583486169643000298146016811D0B5
:102AC00041F001010160FEF70FFE064605E000BF80
:102AD000FEF70AFE801B022888D8D9F8000080077C
:102AE000F6D510E021F001010160FEF7FDFD06467C
:102AF00005E000BFFEF7F8FD801B022870D8D9F86A
:102B000000008007F6D42078800623D5A06900282D
:102B1000286810D040F480502860FEF7E5FD064696
:102B200005E000BFFEF7E0FD801B022858D82868AA
:102B30008004F7D50EE020F480502860FEF7D4FD25
:102B4000064604E0FEF7D0FD801B022848D828681E
:102B50008004F7D42078400751D5DFF86891D9F880
:102B6000001000E015E141F48071C9F80010FEF793
:102B7000BBFD064605E000BFFEF7B6FD801B6428DE
:102B80002ED8D9F80000C005F6D54D4EA0686036A5
:102B900001280AD008B1052813D0306820F00100C0
:102BA0003060306820F0040002E0306840F001003E
:102BB0003060A06841F2883A98B1FEF795FD8146F1
:102BC0000AE0306840F004003060EEE7FEF78CFD6C
:102BD000A0EB0901514503D830688007F6D50EE017
:102BE00072E0FEF781FD814606E000BFFEF77CFD46
:102BF000A0EB0901514567D830688007F6D4606AB8
:102C000000287CD0DFF8B8A0D8F800100AF1200A1C
:102C10004FF6F87B0AF10408C1F3C2010329AAF1B7
:102C200004096DD00228286820F08070286003D045
:102C3000FEF75AFD044681E0FEF756FD064604E025
:102C4000FEF752FD801B022875D828688001F7D452
:102C5000E26A40F2F331386854F8283F884340EA8A
:102C6000021018433860217B4FF4FE0C22894FF08C
:102C7000FE47208A4902267D521E401EA1F50071A2
:102C800089B2C2F308021143761E0CEA00400143E8
:102C9000484607EA06621143CAF80010D9F8001046
:102CA00021F00101C9F80010D8F80030266A23EAA3
:102CB0000B0343EAC601C8F80010D9F8001004E07D
:102CC000104402580048025835E0A26921F00C0176
:102CD0001143C9F800100168E26921F002011143B3
:102CE0000160016841F480310160016841F4003104
:102CF0000160016841F480210160016801E06CE03D
:102D000020E041F001010160286840F080702860F7
:102D1000FEF7EAFC044604E0FEF7E6FC001B02288E
:102D200009D828688001F7D557E000BFFEF7DCFC22
:102D3000001B022802D90320BDE8F09F286880010B
:102D4000F4D44AE039680128DAF8000021D0A26AF8
:102D500001F0030393421CD1E26AC1F305118A42D8
:102D600017D1216BC0F30802491E8A4211D1616B51
:102D7000C0F34622491E91420BD1A16BC0F306421B
:102D8000491E914205D1E16BC0F30660491E8142A4
:102D900001D00120D0E7A16C4646D8F80000C0F36E
:102DA000CC00814219D0D9F800004D4620F0010036
:102DB000C9F80000FEF798FC4FEA0007FEF794FC04
:102DC000B842FBD0A26C306820EA0B0040EAC20097
:102DD0003060286840F0010028600020ACE7401E09
:102DE000B0F1807F10B501D3012010BD4FF0E02479
:102DF00060610F21601701F010FA0020A061072127
:102E0000216110BD7047704770470000F0B590F821
:102E10003C20012A41D0224E012480F83C4002226D
:102E200080F83D2002681F4D5368B242D2F808C0B6
:102E300001D0AA4203D14F6823F470033B430F68CB
:102E400023F070031F4357600268B24219D0B2F1F9
:102E5000804F16D0144B9A4213D0144B9A4210D084
:102E6000134B9A420DD0AA420BD0124B9A4208D073
:102E7000114B9A4205D0114B9A4202D0104B9A4204
:102E800004D189682CF0800319439160002180F8F7
:102E90003D4080F83C100846F0BD0220F0BD000027
:102EA0000000014000040140000400400008004010
:102EB000000C0040001800400040014000E00040CD
:102EC00000E4004010B5040003D094F83D0010B1B8
:102ED00007E0012010BD002084F83C00204600F0EF
:102EE00023F8022084F83D002068211D00F0ACFD8D
:102EF000012084F8480084F83E0084F83F0084F8FC
:102F0000400084F8410084F8420084F8430084F8CB
:102F1000440084F8450084F8460084F8470084F8AB
:102F20003D00002010BD000008B5154A0168154895
:102F300091420ED1016841F0020101600068002257
:102F4000114600F0020000901D20FEF755FC1D20E8
:102F500010E00D4A914211D1016841F00401016075
:102F600000680022114600F0040000901E20FEF7C9
:102F700043FC1E20BDE80840FEF731BC08BD000040
:102F800000040040E84402580008004090F83D105A
:102F9000012901D0012070471A4A022180F83D1012
:102FA0000168CB6843F00103CB60006890421AD0FF
:102FB000B0F1804F17D01449884214D01349884289
:102FC00011D0134988420ED0124988420BD01249C1
:102FD000884208D01149884205D01149884202D060
:102FE0001049884207D181680F4A1140062906D04E
:102FF000B1F5803F03D0016841F00101016000207C
:10300000704700000000014000040040000800403C
:10301000000C004000040140001800400040014046
:1030200000E0004000E400400700010070B50446E5
:1030300090F83C000025012814D03A4B012684F872
:103040003C60022084F83D0022689068184020F41B
:103050007F409060086870282FD010DC10F00F0FB0
:1030600003D022E04FF0020070BD4FEA2012072A81
:103070001BD2DFE802F0535353534B394100B0F1F8
:10308000101F4BD009DCB0F5805F0FD0B0F5005FAA
:103090001ED0B0F5801F08D140E0A0F58011203986
:1030A0003CD010293AD0202938D0012584F83D6041
:1030B000002084F83C00284670BD4A682068D1E9A9
:1030C000021300F033FD2068816841F0770109E0C8
:1030D0004A682068D1E9021300F028FD2068816861
:1030E00041F480418160E1E7CA684968206800F0E6
:1030F00031FD2068502106E0CA684968206800F068
:103100003AFD2068602100F01BFDCFE7CA684968DE
:10311000206800F01FFD20684021F4E72268014686
:103120001046F0E788FFCEFF70472DE9F0410446D6
:1031300000680027C6680569A90713D5B10711D52E
:10314000FA1E0261012121772068806980072046EC
:1031500002D0FFF7E9FF04E000F08BF8204600F012
:1031600089F82777680716D5700714D522680220DA
:103170006FF00401116120772068806910F4407FAE
:10318000204602D0FFF7D0FF04E000F072F820469E
:1031900000F070F82777280715D5300713D5226877
:1031A00004206FF00801116120772068C069800752
:1031B000204602D0FFF7B8FF04E000F05AF820469E
:1031C00000F058F82777E80616D5F00614D52268DF
:1031D00008206FF01001116120772068C06910F499
:1031E000407F204602D0FFF79FFF04E000F041F847
:1031F000204600F03FF82777E80708D0F00706D010
:1032000021686FF001000861204600F035F82806BB
:1032100001D4A80408D5300606D521686FF4025001
:1032200008612046FFF7EFFDE80508D5300606D512
:1032300021686FF4807008612046FFF7E3FD68069F
:1032400008D5700606D521686FF040000861204659
:1032500000F01EF8A8060AD5B00608D521686FF060
:10326000200008612046BDE8F041FFF7CDBDBDE874
:10327000F08170477047000000680349884202D11E
:10328000024801F0D9B9704700040040E001002471
:10329000704730B590F88410012918D0012280F8C9
:1032A00084202421C0F888100022202401680B68A3
:1032B0000D6823F0005325F001050D60426601689A
:1032C0000B60C0F8884080F88420104630BD022092
:1032D00030BD70B5044690F8840001281DD001224D
:1032E00084F884202420C4F88800206805680268D7
:1032F00022F0010202602068826822F060620A43C4
:103300008260204600F04AFC2268202100201560DF
:10331000C4F8881084F8840070BD022070BD70B5B8
:10332000044690F8840001281DD0012284F88420EE
:103330002420C4F8880020680568026822F0010291
:1033400002602068826822F060420A438260204660
:1033500000F024FC2268202100201560C4F88810A9
:1033600084F8840070BD022070BD10B5040003D045
:10337000D4F8880010B107E0012010BD002084F8C7
:103380008400204600F026F82420C4F88800206835
:10339000016821F001010160A06A10B1204600F02F
:1033A0001FFC204600F000FD0128E6D0206841689F
:1033B00021F4904141602068816821F02A018160F8
:1033C0002068016841F0010101602046BDE810401D
:1033D00000F06ABC10B5B4B0044614212EA8FDF765
:1033E0008EF8B8216846FDF78AF8194920688842A6
:1033F0002BD100201E9001210446CDE90010684623
:10340000FEF7ACFB08B1FDF7E0F81248016841F0A7
:1034100010010160006800F0100033900D48103872
:10342000016841F00101016000682EAB022100F04B
:10343000010033904FF4C060072283E81300064870
:103440002EA9CDE93142FEF73BF834B010BD0000A3
:1034500000100140F044025800000258FEE700004E
:103460001A4800232DE9F041174F4FF440750760CB
:103470000124C0E902531426047443740A213B2733
:103480008474C0E907761D25C0E905460422C0E919
:103490000B51C0E909410224C0E90D32C0E90F21F6
:1034A000C0E91121C0E91324C0E915218266C16574
:1034B000C0E91813FDF746FD002803D0BDE8F04130
:1034C000FDF783B8BDE8F08100A00040140000249F
:1034D00030B587B014216846FDF711F81A48016825
:1034E00041F004010160016801F0040105910168E7
:1034F00041F080010160016801F0800105910168DF
:1035000041F001010160016801F0010105910168CC
:1035100041F00801016000684FF480440B4D002227
:1035200000F00800214605902846FEF7D7F8002154
:1035300000940120CDE90101284603916946FDF779
:10354000BFFF07B030BD0000E04402580008025839
:1035500010B588B0174800241549EF2240F2E73330
:10356000009401940294039404940594069480E8D2
:103570001600C0E903348461FFF7A4FC08B1FDF72D
:1035800024F84FF4805000900A486946FFF74EFD3A
:1035900008B1FDF71AF8074804A904940694FFF748
:1035A00035FC002801D0FDF710F808B010BD000070
:1035B00000040040B400002410B588B0174800246F
:1035C0001549EF2240F2E7330094019402940394EA
:1035D00004940594069480E81600C0E903348461DD
:1035E000FFF770FC08B1FCF7F0FF4FF4805000903B
:1035F0000A486946FFF71AFD08B1FCF7E6FF0748DD
:1036000004A904940694FFF701FC002801D0FCF7FC
:10361000DCFF08B010BD00000008004000010024DD
:103620001848002110B5164C0C224FF46123046099
:10363000C0E90131C160C0E904128161C161016268
:1036400041628162FFF791FE08B1FCF7BEFF0D48B1
:103650000021FFF764FE08B1FCF7B7FF094800211D
:10366000FFF737FE08B1FCF7B0FF0648FFF711FE81
:10367000002803D0BDE81040FCF7A7BF10BD000034
:10368000001001404C010024FEE7FEE770470000F7
:103690002DE9F047454D044689464FF0000A286859
:1036A000C04380070AD0414E283E306820F0806039
:1036B0003060FEF719F80746B04608E00120BDE883
:1036C000F08700BFFEF710F8C01B022867D8D8F8B3
:1036D00000000001F6D4206829684FF4FE0721F4A9
:1036E0007C313E0241EA00302860207AA389B4F898
:1036F00004C040022D4D2D495B1E227CACF1010C13
:103700001035091DA0F5007080B2521ECCF3080CD4
:1037100007EA034340EA0C00184306EA026210433A
:1037200028600868626920F0C000104308600A68D9
:10373000A06922F0200202430A60281D0A6822F0D4
:1037400010020A6002684FF6F873E4699A4342EA8D
:10375000C40202600868B9F1000F40F010020A606C
:1037600011D00868B9F1010F11D040F400100860C1
:10377000D8F80000444640F08060C8F80000FDF72B
:10378000B3FF05460DE0086840F40020EFE740F481
:103790008010ECE7FDF7A8FF401B022801D90320A9
:1037A0008DE720680001F5D5504688E72844025887
:1037B0002DE9F047454D044689464FF0000A286838
:1037C000C04380070AD0414E283E306820F0805028
:1037D0003060FDF789FF0746B04608E00120BDE8EC
:1037E000F08700BFFDF780FFC01B022867D8D8F81C
:1037F00000008000F6D4208829684FF4FE0721F0ED
:103800007C713E0241EA00502860207AA389B4F816
:1038100004C040022D4D2D495B1E227CACF1010CF1
:103820001835091DA0F5007080B2521ECCF3080CAB
:1038300007EA034340EA0C00184306EA0262104319
:1038400028600868626920F44060104308600A68D4
:10385000A06922F4007202430A60281D0A6822F45B
:1038600080720A6002684FF6F873E4699A4342EA8C
:10387000C40202600868B9F1000F40F480720A6067
:1038800011D00868B9F1010F11D040F080700860C4
:10389000D8F80000444640F08050C8F80000FDF71A
:1038A00023FF05460DE0086840F48000EFE740F490
:1038B0000000ECE7FDF718FF401B022801D90320A8
:1038C0008DE720688000F5D5504688E728440258E7
:1038D0007047FDF70FBF000070B59CB04C216846E3
:1038E000FCF70DFE202113A8FCF709FE0220FDF7CE
:1038F000B5FF1E48016821F44041016001680024C1
:1039000001F440411B9101688904FCD502200A9012
:1039100028230990C20301210D910625CDE900124B
:10392000CDE90B030C261294CDE90E50CDE91064BD
:103930006846FEF7C1FF08B172B6FEE740201A9054
:1039400008230501CDE9163013ABCDE918053F2159
:10395000032283E8160013A81146FEF79DFD0028F8
:1039600001D072B6FEE71CB070BD000018480258C6
:103970002748F0B5274A016841F4700101601068DA
:1039800000F00F00072804D2106820F00F00C01DBF
:10399000106021490020204C10340B681F4D43F06B
:1039A00001030B6020600B682B400B60136803F071
:1039B0000F03072B04D9136823F00F03DB1D1360DB
:1039C000154C174A1834174B261D371D2060124C12
:1039D000154D28343060261D3860371D23603B1D8F
:1039E00035601C1D3A60251D2E1D1860331D226098
:1039F0002860326018600A6843F2D204064B0B4D0F
:103A000022F4802260330A6018602C60F0BD000050
:103A100088ED00E000200052004402587FEDF6EAF5
:103A200080020101000202020000FF01004000527A
:103A30000148FFF77ABB0000B40000240148FFF7FB
:103A400074BB0000000100242DE9F0472D4B4FF01E
:103A5000804A2D4D026898422C4E2D4F2D4C09D096
:103A6000504507D0A84205D0B04203D0B84201D09B
:103A7000A04205D1D1F804C022F070024CEA020243
:103A8000DFF894C0DFF894809842DFF8949015D066
:103A9000504513D0A84211D0B0420FD0B8420DD03B
:103AA000A0420BD0604509D0404507D0484505D01D
:103AB0001C4DA84202D01C4DA84203D1CD6822F46F
:103AC00040722A434D6922F080022A4302609842E4
:103AD0008A68C2620A68826207D0A04205D0604547
:103AE00003D0404501D0484501D109690163012156
:103AF00041610169C90703D0016921F00101016138
:103B0000BDE8F087000001400004004000080040CC
:103B1000000C00400004014000400140004401400E
:103B20000048014000E0004000E4004042EA032277
:103B300083680A4323F47F410A4382607047000090
:103B4000034B82681A400A4342F0070181607047C4
:103B50008FFFCFFF10B5036A046A23F00A0324F035
:103B60000104046284690B4324F0F00141EA02116C
:103B70008161036210BD10B5036A046A23F0A003DB
:103B800024F010040462846943EA011124F47043B0
:103B900043EA02328261016210BD000030B5416E1D
:103BA000B9B101680D4B03F108048A688968C2F352
:103BB0004262490F5D5C615C2D01B5FBF1F1A0F83B
:103BC0006A10995CA25C0901B1FBF2F1A0F86810DF
:103BD00030BD0121A0F86A10F8E70000444A00084F
:103BE00090F82810090706D50168836B4A6822F40B
:103BF00000421A434A6090F82810C90706D00168AD
:103C0000C36A4A6822F400321A434A6090F82810C6
:103C1000890706D50168036B4A6822F480321A438B
:103C20004A6090F82810490706D50168436B4A6836
:103C300022F480221A434A6090F82810C90606D55B
:103C40000168C36B8A6822F480521A438A6090F834
:103C50002810890606D50168036C8A6822F4005290
:103C60001A438A6090F82810490611D50168436C00
:103C70004A6822F480121A434A60416CB1F5801FF1
:103C800006D10168836C4A6822F4C0021A434A6074
:103C900090F82810090606D50168C26C486820F41F
:103CA00000201043486070472DE9F8430025044682
:103CB000C0F89050FDF718FD8046206820266FF070
:103CC0007E470068000713D5002243463104204692
:103CD000009700F057FA58B1216851E8000F20F022
:103CE000800041E80002002AF6D1C4F8886021E093
:103CF00020680068400722D5002243464FF4800127
:103D00002046009700F03EFAC8B1206850E8001F36
:103D100021F4907140E80012002AF6D120680830A2
:103D200050E8001F21F0010140E80012002AF5D1FF
:103D3000C4F88C60032084F88450BDE8F883C4F88C
:103D40008860C4F88C60E5662567002084F884509C
:103D5000F3E7000010B5026852E8001F21F49071EB
:103D600042E80013002BF6D10E4B0268083252E8ED
:103D7000001F194042E80014002CF6D1C16E012941
:103D800008D1026852E8001F21F0100142E8001338
:103D9000002BF6D100212022C0F88C20C16641679B
:103DA00010BD0000FEFFFFEF2DE9F04304468068E0
:103DB000E24E87B0E24B2168D4E90427D4F81CC056
:103DC00010430A68002547EA0C0738433240024393
:103DD0000A602068E268416821F440511143416063
:103DE0002268A1699A4201D0206A01439668DFF8EF
:103DF00054C3D54FD54806EA0C060E439660216899
:103E0000666ACA6A22F00F023243CA622268BA4264
:103E10000ED1006800F0380018286FD07ADCB8B3F3
:103E200008286CD010286BD18BE0282868D18EE050
:103E3000C7498A4209D1006800F0070006285FD20E
:103E4000DFE800F0507D7F818385C2498A4209D135
:103E5000006800F0070006287BD2DFE800F043701E
:103E600072747678BC498A4209D1006800F0070074
:103E700006286ED2DFE800F036636567696BB749E4
:103E80008A420BD1006800F00700062861D200E0EA
:103E900043E0DFE800F0275456585A5CB0498A42A4
:103EA00006D1006800F0380018284CD0B7DD31E0AA
:103EB000AC498A4209D1006800F00700062848D2C0
:103EC000DFE800F0103D3F414345A7498A420BD14E
:103ED000006800F0070006283BD2DFE800F003305E
:103EE00032343638002035E0A0498A4209D10068D2
:103EF00000F03800182826D091DD0BE023E01EE00A
:103F000027E09B498A420AD1006800F0380018284F
:103F100019D084DD202888D11CE001201AE09A42C3
:103F200017D18A48001D006800F00700062810D24B
:103F3000DFE800F0030507090B0D02200AE004206A
:103F400008E0082006E0102004E0202002E04020E5
:103F500000E080208749DFF820829A42874A4FF4A8
:103F600000434FEA21174FF000064ED110281AD017
:103F700006DC022809D004280BD008287ED10DE0E9
:103F800020283ED0402879D13DE0FDF791FC014644
:103F900010E06846FDF79EFC01990BE003A8FDF7D1
:103FA0003BFD049906E01068800605D51068C0F353
:103FB000C100C140002970D0606A676838F81020DD
:103FC00007EB4703B1FBF2F0834257D8B0EB073F52
:103FD00054D8002308461946FCF7E8F90246780849
:103FE000130E120243EA012110183A4671410023D0
:103FF000FCF7DCF9624AA0F5407191423ED8216895
:104000008FE03946D8E71946D6E7D4F81CC04FF6FA
:10401000EF799C4546D1082819D005DC58B1012814
:104020000CD0042875D10DE0102815D0202835D0EB
:1040300040286ED134E0FEF77FFB01E0FEF78EFBF7
:10404000014610E06846FDF745FC01990BE003A826
:10405000FDF7E2FC049906E01068800604D51068BC
:10406000C0F3C100C140C1B1636A606838F8133061
:10407000B1FBF3F1490001EB500100E049E0B1FB75
:10408000F0F0A0F11001494543D84FF6F0732168D4
:10409000C0F342021840104343E043E03946E3E7EF
:1040A0001946E1E7082819D005DC58B101280CD0E1
:1040B00004282ED10DE0102815D020282BD0402820
:1040C00027D12AE0FEF738FB01E0FEF747FB014667
:1040D00010E06846FDF7FEFB01990BE003A8FDF731
:1040E0009BFC049906E01068800604D51068C0F3B4
:1040F000C100C140B1B1636A606838F81330B1FBE8
:10410000F3F101EB5001B1FBF0F0A0F110014945D2
:1041100005D9012506E03946EDE71946EBE72168A8
:1041200080B2C8600120A4F86A00A4F8680028469C
:104130006667A66707B0BDE8F0830000F369FFCFAC
:10414000000C0058FFF4FF110010014054440258C5
:104150000044004000480040004C00400050004037
:104160000014014000780040007C0040001801402D
:10417000001C01400090D0032C4A00080044025863
:10418000FFFC0F002DE9F047994617460D460446FF
:10419000089E4FF0000833E0701C31D0FDF7A4FA00
:1041A000A0EB0900B04218D8BEB1206801684907E9
:1041B00026D5802D24D0402D22D0C169C9430907BE
:1041C0000DD4082505622046FFF7C4FDC4F89050C1
:1041D000012084F88480BDE8F0870320FBE7C069F4
:1041E000C04300050CD421684FF4006008622046EB
:1041F000FFF7B0FD2021C4F8901084F88480ECE72C
:104200002068C06935EA000004D00020B842C3D05D
:104210000020E0E70120F9E7FEE7090700284FEA60
:10422000116104DB00F1E02080F80014704700F019
:104230000F0000F1E02080F8141D704710B500F069
:1042400087F80548FDF729F8BDE8104003494FF409
:1042500070620148FCF7FABA14000024020A801BBD
:104260002DE9F84F04464FF0000083468246814610
:104270008046074606460546009011B1012927D021
:1042800053E0052A0ED2DFE802F0030515191B00E2
:10429000042010E002204FF0190A4FF0AE0B0090FE
:1042A000504681464FF001080021A1601D270A26D3
:1042B00035463AE0022000908B2004E00120FAE726
:1042C000012000903B204FF0140A83465046E8E757
:1042D000521F052A1FD2DFE802F003090F1319004D
:1042E0001D274FF001080A26354614E019274FF024
:1042F0000108062635460EE013274FF0010802E0BC
:104300000E274FF001080526354604E00D274FF033
:104310000108022635464FF0140A012000904FF4A0
:1043200040714FF03B0BD146A1602046FCF78BFB60
:1043300004F114010098266381E8010AC4E90A57D0
:10434000C4E908A82046BDE8F84FFCF7FBBD000013
:1043500010B58AB002AA002002210190012482E84F
:104360001300059001A906900848FCF714FB0222EF
:104370000648012311460094FCF74CFB0122034838
:104380001146FCF7DBFA0AB010BD0000140000244F
:1043900002460B4610B5087800F00F005060087810
:1043A00000099060B1F8010040BAD060C9781C796A
:1043B000090141EA1411116119795C7901F00F01C9
:1043C00044EA01215161D2ED2C0A1021B1EE600ABC
:1043D00000F0E4FA82ED080AD2ED2D0A10690C21F2
:1043E000B1EE600A00F0DAFA82ED090AD2ED2E0A87
:1043F00050690C21B1EE600A00F0D0FA82ED0A0A91
:10440000987900EE100AB8EE400A82ED0D0AD879CC
:1044100000EE100AB8EE400A82ED0E0A10BD000050
:1044200010B54FF4887420482146FCF768F81F48FF
:104430002146FCF764F81E482146FCF760F81D4849
:104440002146FCF75CF81C482146FCF758F81B484D
:104450002146FCF754F81448012100230422F7EE0A
:10446000000A0180438080F858109FED161A80F8EA
:104470003C209FED130AC0ED110ADFED131A80ED09
:10448000101A80ED120AC0ED131A80ED140A80EDA7
:10449000150AB030B2EE092AF3EE0E2AB2EE043A53
:1044A00080EC032A10BD0000E0010024F00200248B
:1044B00000040024100500242006002430070024F6
:1044C00000000000C3F5C8400AD7A33C0EB5002089
:1044D000694601AA01900290074800F011F8BDF862
:1044E0000000002807D1054801A9FFF751FF034844
:1044F00001A900F063F90EBD14000024E0010024BE
:1045000030B58BB00D46402113466A46FCF7C2FA1F
:1045100010B100200BB030BD009828800398082807
:1045200001D8C4B21BE009280CD00A280CD00B28F3
:104530000CD00C280CD00D280CD00E280CD00F2835
:104540000CD00CE00C240AE0102408E0142406E04F
:10455000182404E0202402E0302400E04024204617
:10456000D8E710B58AB00024082B0294CDE90014D6
:1045700001D803931CE00C2B0CD0102B0CD0142B67
:104580000CD0182B0CD0202B0CD0302B0CD0402B67
:104590000CD00DE009210AE00A2108E00B2106E019
:1045A0000C2104E00D2102E00E2100E00F21039117
:1045B0004FF4801108944B00CDE90441CDE9063455
:1045C0006946FCF787F9002800D001200AB010BD29
:1045D000FDF798F8FFF780F9FEF77AFFFEF740FF46
:1045E000FEF7B6FFFFF71CF8FEF7E6FF01220E48C4
:1045F0009103FDF773F84FF47A70FCF715F90B4847
:1046000004220021FFF72CFEFFF718FEFFF708FF3A
:104610000749042081F83C006420FCF705F90548AF
:10462000FEF7B4FCFEE70000000802581400002466
:10463000E0010024B400002490F858102E296FD215
:10464000DFE801F0A0171A1D202326292C2F323570
:10465000383B3E4144474A4D505356595C5F626572
:10466000686B6F7275787B7E8184878A8D90939654
:10467000999C0088002183E00088012180E0008867
:1046800002217DE0008803217AE00088042177E0A0
:104690000088052174E00088062171E00088072168
:1046A0006EE0008808216BE00088092168E000883E
:1046B0000A2165E000880B2162E000880C215FE0A0
:1046C00000880D215CE000880E2159E000880F2150
:1046D00056E00088102153E00088112150E0008846
:1046E00012214DE0008813214AE00088142147E0A0
:1046F0000088152144E00088162141E00088172138
:104700003EE0008818213BE00088192138E000884D
:104710001A2135E000881B2132E000881C212FE09F
:1047200030E000881D212BE000881E2128E0008851
:104730001F2125E00088202122E0008821211FE0A0
:10474000008822211CE00088232119E00088242110
:1047500016E00088322113E00088332110E0008841
:1047600034210DE0008835210AE00088362107E079
:104770000088372104E00088502101E000885121A1
:1047800000F002B8704700000AA208B5136800F0F4
:104790000F020093C0F303108DF8002004238DF85E
:1047A00001006A4604488DF8031040F2FF71FFF7DC
:1047B000D8FE08BD000033001400002430B590F886
:1047C0005830002B6FD08B78332B6CD10B794D790F
:1047D0008C7963F30702CB78C97965F30F22522BEA
:1047E00064F3174261F31F625DD2DFE803F0292C06
:1047F0002F3235383B3E4144484C5054585D61653A
:10480000696D7175797D8185898D9195999DA1A538
:10481000A9ADB1D6D6D6D6D6D6D6D6D6D6D6D6D6B3
:10482000B5B9BDC1C5C9D6D6D6D6D6D6D6D6D6D6B2
:10483000D6D6D6D6D6D6D6D6D6D6D6D6D6D6CDD126
:104840000221C265A7E003210266A4E004214266BA
:10485000A1E0052182669EE00621C2669BE0072159
:10486000026798E00821426795E00921826792E09B
:104870000A21C2678FE00B21C0F880208BE00C2159
:10488000C0F8842087E00D21C0F8882083E00E2145
:10489000C0F88C207FE00F21C0F890207BE0102131
:1048A000C0F8942077E078E01121C0F8982072E0F9
:1048B0001221C0F89C206EE01321C0F8A0206AE00D
:1048C0001421C0F8A42066E01521C0F8A82062E0F9
:1048D0001621C0F8AC205EE01721C0F8B0205AE0E5
:1048E0001821C0F8B42056E01921C0F8B82052E0D1
:1048F0001A21C0F8BC204EE01B21C0F8C0204AE0BD
:104900001C21C0F8C42046E01D21C0F8C82042E0A8
:104910001E21C0F8CC203EE01F21C0F8D0203AE094
:104920002021C0F8D42036E02121C0F8D82032E080
:104930002221C0F8DC202EE02321C0F8E0202AE06C
:104940002421C0F8E42026E02521C0F8E82022E058
:104950002621C0F8EC201EE02721C0F8F0201AE044
:104960002821C0F8F42016E02921C0F8F82012E030
:104970002A21C0F8FC200EE02B21C0F800210AE01B
:104980002C21C0F8042106E02D21C0F8082102E006
:104990000021C0F80C2180F8581030BD01EE100A3B
:1049A00070EEC00A0120B8EEC11A8840401E21EE08
:1049B000201A00EE900AF8EEE01AC1EE210A30EE5D
:1049C000800A70474FF04070E1EE100A7047000017
:1049D0000001020304050607080C101418203040DB
:1049E00000000000000000000000000000000000C7
:1049F00000000000010000000200000003000000B1
:104A0000040000000000000005000000000000009D
:104A10000000000000000000060000000000000090
:104A2000000000000000000007000000010002007C
:104A30000400060008000A000C00100020004000DE
:104A400080000001010101030701000008040204C5
:104A50000801010100000000010203040102030437
:104A600006070809844A000800000024140000001A
:104A700008030008984A000814000024CC30000005
:104A800024030008010000001000000000000000E6
:084A90000090D0030090D00358
:04000005080002CD20
:00000001FF
